{
  "contractName": "EIP712MetaTransaction",
  "abi": [
    {
      "inputs": [
        {
          "internalType": "string",
          "name": "name",
          "type": "string"
        },
        {
          "internalType": "string",
          "name": "version",
          "type": "string"
        }
      ],
      "stateMutability": "nonpayable",
      "type": "constructor"
    },
    {
      "anonymous": false,
      "inputs": [
        {
          "indexed": false,
          "internalType": "address",
          "name": "userAddress",
          "type": "address"
        },
        {
          "indexed": false,
          "internalType": "address payable",
          "name": "relayerAddress",
          "type": "address"
        },
        {
          "indexed": false,
          "internalType": "bytes",
          "name": "functionSignature",
          "type": "bytes"
        }
      ],
      "name": "MetaTransactionExecuted",
      "type": "event"
    },
    {
      "inputs": [
        {
          "internalType": "address",
          "name": "userAddress",
          "type": "address"
        },
        {
          "internalType": "bytes",
          "name": "functionSignature",
          "type": "bytes"
        },
        {
          "internalType": "bytes32",
          "name": "sigR",
          "type": "bytes32"
        },
        {
          "internalType": "bytes32",
          "name": "sigS",
          "type": "bytes32"
        },
        {
          "internalType": "uint8",
          "name": "sigV",
          "type": "uint8"
        }
      ],
      "name": "executeMetaTransaction",
      "outputs": [
        {
          "internalType": "bytes",
          "name": "",
          "type": "bytes"
        }
      ],
      "stateMutability": "payable",
      "type": "function"
    },
    {
      "inputs": [
        {
          "internalType": "address",
          "name": "user",
          "type": "address"
        }
      ],
      "name": "getNonce",
      "outputs": [
        {
          "internalType": "uint256",
          "name": "nonce",
          "type": "uint256"
        }
      ],
      "stateMutability": "view",
      "type": "function"
    }
  ],
  "bytecode": "0x608060405234801561001057600080fd5b50604051610a45380380610a4583398101604081905261002f91610155565b81816040518060800160405280604f81526020016109f6604f91398051906020012082805190602001208280519060200120306100706100a960201b60201c565b6040516100849594939291906020016101b5565b60405160208183030381529060405280519060200120600081905550505050506101f7565b4690565b600082601f8301126100bd578081fd5b81516001600160401b03808211156100d7576100d76101e1565b604051601f8301601f19908116603f011681019082821181831017156100ff576100ff6101e1565b8160405283815260209250868385880101111561011a578485fd5b8491505b8382101561013b578582018301518183018401529082019061011e565b8382111561014b57848385830101525b9695505050505050565b60008060408385031215610167578182fd5b82516001600160401b038082111561017d578384fd5b610189868387016100ad565b9350602085015191508082111561019e578283fd5b506101ab858286016100ad565b9150509250929050565b948552602085019390935260408401919091526001600160a01b03166060830152608082015260a00190565b634e487b7160e01b600052604160045260246000fd5b6107f0806102066000396000f3fe6080604052600436106100295760003560e01c80630c53c51c1461002e5780632d0335ab14610057575b600080fd5b61004161003c366004610401565b610084565b60405161004e91906105f1565b60405180910390f35b34801561006357600080fd5b506100776100723660046103e7565b610245565b60405161004e9190610704565b6060600061009186610260565b90506000356001600160e01b031990811690821614156100cc5760405162461bcd60e51b81526004016100c39061063b565b60405180910390fd5b604080516060810182526001600160a01b038916600081815260016020908152908490205483528201529081018790526101098882888888610280565b6101255760405162461bcd60e51b81526004016100c3906106c3565b6001600160a01b03881660009081526001602081905260409091205461014a9161032c565b6001600160a01b038916600090815260016020908152604080832093909355915190918291309161017f918c918e9101610528565b60408051601f19818403018152908290526101999161050c565b6000604051808303816000865af19150503d80600081146101d6576040519150601f19603f3d011682016040523d82523d6000602084013e6101db565b606091505b5091509150816101fd5760405162461bcd60e51b81526004016100c390610604565b7f5845892132946850460bff5a0083f71031bc5bf9aadcd40f1de79423eac9b10b8a338b6040516102309392919061057a565b60405180910390a19998505050505050505050565b6001600160a01b031660009081526001602052604090205490565b60008151600014156102745750600061027b565b5060208101515b919050565b60008060016102966102918861033f565b61039d565b848787604051600081526020016040526040516102b694939291906105d3565b6020604051602081039080840390855afa1580156102d8573d6000803e3d6000fd5b5050604051601f1901519150506001600160a01b03811661030b5760405162461bcd60e51b81526004016100c390610698565b866001600160a01b0316816001600160a01b03161491505095945050505050565b6000610338828461070d565b9392505050565b6000604051806080016040528060438152602001610778604391398051602091820120835184830151604080870151805190860120905161038095016105af565b604051602081830303815290604052805190602001209050919050565b60006103a76103b9565b8260405160200161038092919061055f565b60005490565b80356001600160a01b038116811461027b57600080fd5b803560ff8116811461027b57600080fd5b6000602082840312156103f8578081fd5b610338826103bf565b600080600080600060a08688031215610418578081fd5b610421866103bf565b9450602086013567ffffffffffffffff8082111561043d578283fd5b818801915088601f830112610450578283fd5b81358181111561046257610462610761565b604051601f8201601f19908116603f0116810190838211818310171561048a5761048a610761565b816040528281528b60208487010111156104a2578586fd5b82602086016020830137918201602001859052509550505060408601359250606086013591506104d4608087016103d6565b90509295509295909350565b600081518084526104f8816020860160208601610731565b601f01601f19169290920160200192915050565b6000825161051e818460208701610731565b9190910192915050565b6000835161053a818460208801610731565b60609390931b6bffffffffffffffffffffffff19169190920190815260140192915050565b61190160f01b81526002810192909252602282015260420190565b6001600160a01b038481168252831660208201526060604082018190526000906105a6908301846104e0565b95945050505050565b93845260208401929092526001600160a01b03166040830152606082015260800190565b93845260ff9290921660208401526040830152606082015260800190565b60006020825261033860208301846104e0565b6020808252601c908201527f46756e6374696f6e2063616c6c206e6f74207375636365737366756c00000000604082015260600190565b6020808252603d908201527f66756e6374696f6e5369676e61747572652063616e206e6f74206265206f662060408201527f657865637574654d6574615472616e73616374696f6e206d6574686f64000000606082015260800190565b602080825260119082015270496e76616c6964207369676e617475726560781b604082015260600190565b60208082526021908201527f5369676e657220616e64207369676e617475726520646f206e6f74206d6174636040820152600d60fb1b606082015260800190565b90815260200190565b6000821982111561072c57634e487b7160e01b81526011600452602481fd5b500190565b60005b8381101561074c578181015183820152602001610734565b8381111561075b576000848401525b50505050565b634e487b7160e01b600052604160045260246000fdfe4d6574615472616e73616374696f6e2875696e74323536206e6f6e63652c616464726573732066726f6d2c62797465732066756e6374696f6e5369676e617475726529a264697066735822122022eda99ca2d7b08a02aab1b659393c4f9da59b491cd6aa500bad0db1650c2d8964736f6c63430008010033454950373132446f6d61696e28737472696e67206e616d652c737472696e672076657273696f6e2c6164647265737320766572696679696e67436f6e74726163742c627974657333322073616c7429",
  "immutableReferences": {},
  "source": "//SPDX-License-Identifier: MIT\r\npragma solidity 0.8.1;\r\n\r\nimport \"./EIP712Base.sol\";\r\nimport \"./SafeMath.sol\";\r\n\r\ncontract EIP712MetaTransaction is EIP712Base {\r\n    using SafeMath for uint256;\r\n    bytes32 private constant META_TRANSACTION_TYPEHASH = keccak256(bytes(\"MetaTransaction(uint256 nonce,address from,bytes functionSignature)\"));\r\n\r\n    event MetaTransactionExecuted(address userAddress, address payable relayerAddress, bytes functionSignature);\r\n    mapping(address => uint256) private nonces;\r\n\r\n    /*\r\n     * Meta transaction structure.\r\n     * No point of including value field here as if user is doing value transfer then he has the funds to pay for gas\r\n     * He should call the desired function directly in that case.\r\n     */\r\n    struct MetaTransaction {\r\n        uint256 nonce;\r\n        address from;\r\n        bytes functionSignature;\r\n    }\r\n\r\n    constructor(string memory name, string memory version) EIP712Base(name, version) {}\r\n\r\n    function convertBytesToBytes4(bytes memory inBytes) internal pure returns (bytes4 outBytes4) {\r\n        if (inBytes.length == 0) {\r\n            return 0x0;\r\n        }\r\n\r\n        assembly {\r\n            outBytes4 := mload(add(inBytes, 32))\r\n        }\r\n    }\r\n\r\n    function executeMetaTransaction(address userAddress,\r\n        bytes memory functionSignature, bytes32 sigR, bytes32 sigS, uint8 sigV) public payable returns(bytes memory) {\r\n        bytes4 destinationFunctionSig = convertBytesToBytes4(functionSignature);\r\n        require(destinationFunctionSig != msg.sig, \"functionSignature can not be of executeMetaTransaction method\");\r\n        MetaTransaction memory metaTx = MetaTransaction({\r\n            nonce: nonces[userAddress],\r\n            from: userAddress,\r\n            functionSignature: functionSignature\r\n        });\r\n        require(verify(userAddress, metaTx, sigR, sigS, sigV), \"Signer and signature do not match\");\r\n        nonces[userAddress] = nonces[userAddress].add(1);\r\n        // Append userAddress at the end to extract it from calling context\r\n        (bool success, bytes memory returnData) = address(this).call(abi.encodePacked(functionSignature, userAddress));\r\n\r\n        require(success, \"Function call not successful\");\r\n        emit MetaTransactionExecuted(userAddress, payable(msg.sender), functionSignature);\r\n        return returnData;\r\n    }\r\n\r\n    function hashMetaTransaction(MetaTransaction memory metaTx) internal pure returns (bytes32) {\r\n        return keccak256(abi.encode(\r\n            META_TRANSACTION_TYPEHASH,\r\n            metaTx.nonce,\r\n            metaTx.from,\r\n            keccak256(metaTx.functionSignature)\r\n        ));\r\n    }\r\n\r\n    function getNonce(address user) external view returns(uint256 nonce) {\r\n        nonce = nonces[user];\r\n    }\r\n\r\n    function verify(address user, MetaTransaction memory metaTx, bytes32 sigR, bytes32 sigS, uint8 sigV) internal view returns (bool) {\r\n        address signer = ecrecover(toTypedMessageHash(hashMetaTransaction(metaTx)), sigV, sigR, sigS);\r\n        require(signer != address(0), \"Invalid signature\");\r\n        return signer == user;\r\n    }\r\n\r\n    function msgSender() internal view returns(address sender) {\r\n        if(msg.sender == address(this)) {\r\n            bytes memory array = msg.data;\r\n            uint256 index = msg.data.length;\r\n            assembly {\r\n                // Load the 32 bytes word from memory with the address on the lower 20 bytes, and mask those.\r\n                sender := and(mload(add(array, index)), 0xffffffffffffffffffffffffffffffffffffffff)\r\n            }\r\n        } else {\r\n            sender = msg.sender;\r\n        }\r\n        return sender;\r\n    }\r\n}\r\n",
  "sourcePath": "D:\\Ethernals\\VidShield\\contracts\\EIP712MetaTransaction.sol",
  "compiler": {
    "name": "solc",
    "version": "0.8.1+commit.df193b15.Emscripten.clang"
  },
  "schemaVersion": "3.4.4",
  "updatedAt": "2022-03-21T14:53:37.084Z",
  "devdoc": {
    "kind": "dev",
    "methods": {},
    "version": 1
  },
  "userdoc": {
    "kind": "user",
    "methods": {},
    "version": 1
  }
}