{
  "contractName": "VidShield",
  "abi": [
    {
      "inputs": [],
      "stateMutability": "nonpayable",
      "type": "constructor"
    },
    {
      "anonymous": false,
      "inputs": [
        {
          "indexed": false,
          "internalType": "address",
          "name": "pirate",
          "type": "address"
        }
      ],
      "name": "PirateReported",
      "type": "event"
    },
    {
      "anonymous": false,
      "inputs": [
        {
          "indexed": false,
          "internalType": "uint256",
          "name": "videoId",
          "type": "uint256"
        }
      ],
      "name": "VideoRegistered",
      "type": "event"
    },
    {
      "anonymous": false,
      "inputs": [
        {
          "indexed": false,
          "internalType": "address",
          "name": "creator",
          "type": "address"
        }
      ],
      "name": "creatorRegisteredConfirm",
      "type": "event"
    },
    {
      "anonymous": false,
      "inputs": [
        {
          "indexed": false,
          "internalType": "address",
          "name": "viewer",
          "type": "address"
        },
        {
          "indexed": false,
          "internalType": "address",
          "name": "creator",
          "type": "address"
        }
      ],
      "name": "viewerSubscribedCreator",
      "type": "event"
    },
    {
      "inputs": [
        {
          "internalType": "address",
          "name": "",
          "type": "address"
        },
        {
          "internalType": "address",
          "name": "",
          "type": "address"
        }
      ],
      "name": "creatorssubscribed",
      "outputs": [
        {
          "internalType": "string",
          "name": "",
          "type": "string"
        }
      ],
      "stateMutability": "view",
      "type": "function",
      "constant": true
    },
    {
      "inputs": [],
      "name": "requestcounter",
      "outputs": [
        {
          "internalType": "uint256",
          "name": "",
          "type": "uint256"
        }
      ],
      "stateMutability": "view",
      "type": "function",
      "constant": true
    },
    {
      "inputs": [],
      "name": "vidcounter",
      "outputs": [
        {
          "internalType": "uint256",
          "name": "",
          "type": "uint256"
        }
      ],
      "stateMutability": "view",
      "type": "function",
      "constant": true
    },
    {
      "inputs": [
        {
          "internalType": "string",
          "name": "title",
          "type": "string"
        },
        {
          "internalType": "string",
          "name": "livepeerlink",
          "type": "string"
        },
        {
          "internalType": "address payable",
          "name": "creator",
          "type": "address"
        },
        {
          "internalType": "string",
          "name": "date",
          "type": "string"
        },
        {
          "internalType": "string",
          "name": "thumbnail",
          "type": "string"
        }
      ],
      "name": "registerVideo",
      "outputs": [],
      "stateMutability": "nonpayable",
      "type": "function"
    },
    {
      "inputs": [
        {
          "internalType": "address payable",
          "name": "creator",
          "type": "address"
        }
      ],
      "name": "registerCreator",
      "outputs": [],
      "stateMutability": "nonpayable",
      "type": "function"
    },
    {
      "inputs": [],
      "name": "getAllRegisteredCreators",
      "outputs": [
        {
          "internalType": "address[]",
          "name": "",
          "type": "address[]"
        }
      ],
      "stateMutability": "view",
      "type": "function",
      "constant": true
    },
    {
      "inputs": [],
      "name": "getCountOfAllRegisteredCreators",
      "outputs": [
        {
          "internalType": "uint256",
          "name": "",
          "type": "uint256"
        }
      ],
      "stateMutability": "view",
      "type": "function",
      "constant": true
    },
    {
      "inputs": [
        {
          "internalType": "address",
          "name": "creator",
          "type": "address"
        }
      ],
      "name": "checkIfAlreadyCreator",
      "outputs": [
        {
          "internalType": "bool",
          "name": "",
          "type": "bool"
        }
      ],
      "stateMutability": "view",
      "type": "function",
      "constant": true
    },
    {
      "inputs": [
        {
          "internalType": "address",
          "name": "viewer",
          "type": "address"
        }
      ],
      "name": "checkIfAlreadyViewer",
      "outputs": [
        {
          "internalType": "bool",
          "name": "",
          "type": "bool"
        }
      ],
      "stateMutability": "view",
      "type": "function",
      "constant": true
    },
    {
      "inputs": [
        {
          "internalType": "address payable",
          "name": "viewer",
          "type": "address"
        }
      ],
      "name": "registerViewer",
      "outputs": [],
      "stateMutability": "payable",
      "type": "function",
      "payable": true
    },
    {
      "inputs": [
        {
          "internalType": "address payable",
          "name": "viewer",
          "type": "address"
        },
        {
          "internalType": "address payable",
          "name": "creator",
          "type": "address"
        },
        {
          "internalType": "string",
          "name": "subscriptionenddate",
          "type": "string"
        }
      ],
      "name": "subscribeCreator",
      "outputs": [],
      "stateMutability": "payable",
      "type": "function",
      "payable": true
    },
    {
      "inputs": [
        {
          "internalType": "address",
          "name": "viewer",
          "type": "address"
        }
      ],
      "name": "getCreatorsforViewer",
      "outputs": [
        {
          "internalType": "address[]",
          "name": "",
          "type": "address[]"
        }
      ],
      "stateMutability": "view",
      "type": "function",
      "constant": true
    },
    {
      "inputs": [
        {
          "internalType": "address",
          "name": "viewer",
          "type": "address"
        },
        {
          "internalType": "address",
          "name": "creator",
          "type": "address"
        }
      ],
      "name": "unsubscribeCreator",
      "outputs": [],
      "stateMutability": "nonpayable",
      "type": "function"
    },
    {
      "inputs": [
        {
          "internalType": "uint256",
          "name": "id",
          "type": "uint256"
        }
      ],
      "name": "getVideoData",
      "outputs": [
        {
          "components": [
            {
              "internalType": "uint256",
              "name": "id",
              "type": "uint256"
            },
            {
              "internalType": "string",
              "name": "livepeerlink",
              "type": "string"
            },
            {
              "internalType": "string",
              "name": "thumbnail",
              "type": "string"
            },
            {
              "internalType": "string",
              "name": "title",
              "type": "string"
            },
            {
              "internalType": "address",
              "name": "creator",
              "type": "address"
            },
            {
              "internalType": "string",
              "name": "date",
              "type": "string"
            }
          ],
          "internalType": "struct VidShield.Video",
          "name": "",
          "type": "tuple"
        }
      ],
      "stateMutability": "view",
      "type": "function",
      "constant": true
    },
    {
      "inputs": [
        {
          "internalType": "address",
          "name": "viewer",
          "type": "address"
        }
      ],
      "name": "getUserData",
      "outputs": [
        {
          "components": [
            {
              "internalType": "address",
              "name": "viewer",
              "type": "address"
            },
            {
              "internalType": "address[]",
              "name": "allcreatorsubscribed",
              "type": "address[]"
            },
            {
              "internalType": "bool",
              "name": "block",
              "type": "bool"
            }
          ],
          "internalType": "struct VidShield.User",
          "name": "",
          "type": "tuple"
        }
      ],
      "stateMutability": "view",
      "type": "function",
      "constant": true
    },
    {
      "inputs": [
        {
          "internalType": "address",
          "name": "reporter",
          "type": "address"
        },
        {
          "internalType": "string",
          "name": "movielink",
          "type": "string"
        },
        {
          "internalType": "address",
          "name": "pirate",
          "type": "address"
        }
      ],
      "name": "addReporter",
      "outputs": [],
      "stateMutability": "nonpayable",
      "type": "function"
    },
    {
      "inputs": [
        {
          "internalType": "uint256",
          "name": "key",
          "type": "uint256"
        }
      ],
      "name": "getreporterrequest",
      "outputs": [
        {
          "components": [
            {
              "internalType": "address",
              "name": "reporter",
              "type": "address"
            },
            {
              "internalType": "address",
              "name": "pirate",
              "type": "address"
            },
            {
              "internalType": "string",
              "name": "movielink",
              "type": "string"
            },
            {
              "internalType": "bool",
              "name": "fulfill",
              "type": "bool"
            }
          ],
          "internalType": "struct VidShield.Request",
          "name": "",
          "type": "tuple"
        }
      ],
      "stateMutability": "view",
      "type": "function",
      "constant": true
    },
    {
      "inputs": [
        {
          "internalType": "address",
          "name": "pirate",
          "type": "address"
        }
      ],
      "name": "blockUser",
      "outputs": [],
      "stateMutability": "nonpayable",
      "type": "function"
    }
  ],
  "bytecode": "0x60806040526000600655600060085534801561001a57600080fd5b5033600960006101000a81548173ffffffffffffffffffffffffffffffffffffffff021916908373ffffffffffffffffffffffffffffffffffffffff16021790555061294b8061006b6000396000f3fe6080604052600436106101095760003560e01c806392e2317911610095578063cb484b6911610064578063cb484b6914610373578063cd64c4a81461039c578063f249e3cc146103c5578063fe5483c414610402578063ffc9896b1461042d57610109565b806392e23179146102a5578063940e1d2c146102e25780639a8b55131461030b578063c24453f21461034857610109565b80634f5b0a30116100dc5780634f5b0a30146101c8578063581652d1146101e457806361075c32146102005780636919e53a1461023d5780639222a8101461027a57610109565b8063034b512b1461010e5780633170258014610139578063352607c1146101625780633da013251461019f575b600080fd5b34801561011a57600080fd5b5061012361046a565b60405161013091906124bc565b60405180910390f35b34801561014557600080fd5b50610160600480360381019061015b9190611f98565b610470565b005b34801561016e57600080fd5b5061018960048036038101906101849190611e3c565b61067a565b60405161019691906123f7565b60405180910390f35b3480156101ab57600080fd5b506101c660048036038101906101c19190611e3c565b61074a565b005b6101e260048036038101906101dd9190611e8e565b6109aa565b005b6101fe60048036038101906101f99190611e65565b610d8c565b005b34801561020c57600080fd5b506102276004803603810190610222919061206f565b610ead565b6040516102349190612456565b60405180910390f35b34801561024957600080fd5b50610264600480360381019061025f9190611e3c565b611033565b6040516102719190612419565b60405180910390f35b34801561028657600080fd5b5061028f611089565b60405161029c91906124bc565b60405180910390f35b3480156102b157600080fd5b506102cc60048036038101906102c79190611e3c565b611096565b6040516102d99190612419565b60405180910390f35b3480156102ee57600080fd5b5061030960048036038101906103049190611f31565b6110ec565b005b34801561031757600080fd5b50610332600480360381019061032d9190611ef5565b611280565b60405161033f9190612434565b60405180910390f35b34801561035457600080fd5b5061035d61132d565b60405161036a91906124bc565b60405180910390f35b34801561037f57600080fd5b5061039a60048036038101906103959190611ef5565b611333565b005b3480156103a857600080fd5b506103c360048036038101906103be9190611e65565b61152e565b005b3480156103d157600080fd5b506103ec60048036038101906103e7919061206f565b611680565b6040516103f9919061249a565b60405180910390f35b34801561040e57600080fd5b50610417611955565b60405161042491906123f7565b60405180910390f35b34801561043957600080fd5b50610454600480360381019061044f9190611e3c565b6119e3565b6040516104619190612478565b60405180910390f35b60065481565b60011515600460008573ffffffffffffffffffffffffffffffffffffffff1673ffffffffffffffffffffffffffffffffffffffff16815260200190815260200160002060009054906101000a900460ff161515146104cd57600080fd5b6104d5611b3b565b6001600860008282546104e891906125a4565b9250508190555060085481600001818152505085816060018190525084816020018190525081816040018190525083816080019073ffffffffffffffffffffffffffffffffffffffff16908173ffffffffffffffffffffffffffffffffffffffff1681525050828160a00181905250806002600083600001518152602001908152602001600020600082015181600001556020820151816001019080519060200190610595929190611b87565b5060408201518160020190805190602001906105b2929190611b87565b5060608201518160030190805190602001906105cf929190611b87565b5060808201518160040160006101000a81548173ffffffffffffffffffffffffffffffffffffffff021916908373ffffffffffffffffffffffffffffffffffffffff16021790555060a0820151816005019080519060200190610633929190611b87565b509050507f67fbc59441699d813d53c64203e5bec4c44ade430c0f30a41089feaa57619362816000015160405161066a91906124bc565b60405180910390a1505050505050565b6060600160008373ffffffffffffffffffffffffffffffffffffffff1673ffffffffffffffffffffffffffffffffffffffff16815260200190815260200160002060010180548060200260200160405190810160405280929190818152602001828054801561073e57602002820191906000526020600020905b8160009054906101000a900473ffffffffffffffffffffffffffffffffffffffff1673ffffffffffffffffffffffffffffffffffffffff16815260200190600101908083116106f4575b50505050509050919050565b6000600160008373ffffffffffffffffffffffffffffffffffffffff1673ffffffffffffffffffffffffffffffffffffffff1681526020019081526020016000206040518060600160405290816000820160009054906101000a900473ffffffffffffffffffffffffffffffffffffffff1673ffffffffffffffffffffffffffffffffffffffff1673ffffffffffffffffffffffffffffffffffffffff1681526020016001820180548060200260200160405190810160405280929190818152602001828054801561087157602002820191906000526020600020905b8160009054906101000a900473ffffffffffffffffffffffffffffffffffffffff1673ffffffffffffffffffffffffffffffffffffffff1681526020019060010190808311610827575b505050505081526020016002820160009054906101000a900460ff1615151515815250509050600181604001901515908115158152505080600160008473ffffffffffffffffffffffffffffffffffffffff1673ffffffffffffffffffffffffffffffffffffffff16815260200190815260200160002060008201518160000160006101000a81548173ffffffffffffffffffffffffffffffffffffffff021916908373ffffffffffffffffffffffffffffffffffffffff160217905550602082015181600101908051906020019061094b929190611c0d565b5060408201518160020160006101000a81548160ff0219169083151502179055509050507f898e03c08749f8a493582fc0a6648a56bd8a498f9c1fed77bf87da7facb1d7588260405161099e9190612398565b60405180910390a15050565b6000600160008573ffffffffffffffffffffffffffffffffffffffff1673ffffffffffffffffffffffffffffffffffffffff1681526020019081526020016000209050600081600101905080849080600181540180825580915050600190039060005260206000200160009091909190916101000a81548173ffffffffffffffffffffffffffffffffffffffff021916908373ffffffffffffffffffffffffffffffffffffffff160217905550600060405180606001604052808773ffffffffffffffffffffffffffffffffffffffff16815260200183805480602002602001604051908101604052809291908181526020018280548015610b0157602002820191906000526020600020905b8160009054906101000a900473ffffffffffffffffffffffffffffffffffffffff1673ffffffffffffffffffffffffffffffffffffffff1681526020019060010190808311610ab7575b505050505081526020016000151581525090506000600534610b2391906125fa565b905060006005600434610b36919061262b565b610b4091906125fa565b9050600960009054906101000a900473ffffffffffffffffffffffffffffffffffffffff1673ffffffffffffffffffffffffffffffffffffffff166108fc839081150290604051600060405180830381858888f19350505050158015610baa573d6000803e3d6000fd5b508673ffffffffffffffffffffffffffffffffffffffff166108fc829081150290604051600060405180830381858888f19350505050158015610bf1573d6000803e3d6000fd5b50856000808a73ffffffffffffffffffffffffffffffffffffffff1673ffffffffffffffffffffffffffffffffffffffff16815260200190815260200160002060008973ffffffffffffffffffffffffffffffffffffffff1673ffffffffffffffffffffffffffffffffffffffff1681526020019081526020016000209080519060200190610c81929190611b87565b5082600160008a73ffffffffffffffffffffffffffffffffffffffff1673ffffffffffffffffffffffffffffffffffffffff16815260200190815260200160002060008201518160000160006101000a81548173ffffffffffffffffffffffffffffffffffffffff021916908373ffffffffffffffffffffffffffffffffffffffff1602179055506020820151816001019080519060200190610d25929190611c0d565b5060408201518160020160006101000a81548160ff0219169083151502179055509050507f37927fbcafc58533286cad12a4edbc7cd66341c33733d1dbb9ae45fa3523c5a28888604051610d7a9291906123ce565b60405180910390a15050505050505050565b60001515600560008373ffffffffffffffffffffffffffffffffffffffff1673ffffffffffffffffffffffffffffffffffffffff16815260200190815260200160002060009054906101000a900460ff16151514610de957600080fd5b6001600560008373ffffffffffffffffffffffffffffffffffffffff1673ffffffffffffffffffffffffffffffffffffffff16815260200190815260200160002060006101000a81548160ff021916908315150217905550600960009054906101000a900473ffffffffffffffffffffffffffffffffffffffff1673ffffffffffffffffffffffffffffffffffffffff166108fc349081150290604051600060405180830381858888f19350505050158015610ea9573d6000803e3d6000fd5b5050565b610eb5611c97565b600760008381526020019081526020016000206040518060800160405290816000820160009054906101000a900473ffffffffffffffffffffffffffffffffffffffff1673ffffffffffffffffffffffffffffffffffffffff1673ffffffffffffffffffffffffffffffffffffffff1681526020016001820160009054906101000a900473ffffffffffffffffffffffffffffffffffffffff1673ffffffffffffffffffffffffffffffffffffffff1673ffffffffffffffffffffffffffffffffffffffff168152602001600282018054610f8f90612757565b80601f0160208091040260200160405190810160405280929190818152602001828054610fbb90612757565b80156110085780601f10610fdd57610100808354040283529160200191611008565b820191906000526020600020905b815481529060010190602001808311610feb57829003601f168201915b505050505081526020016003820160009054906101000a900460ff1615151515815250509050919050565b6000600460008373ffffffffffffffffffffffffffffffffffffffff1673ffffffffffffffffffffffffffffffffffffffff16815260200190815260200160002060009054906101000a900460ff169050919050565b6000600380549050905090565b6000600560008373ffffffffffffffffffffffffffffffffffffffff1673ffffffffffffffffffffffffffffffffffffffff16815260200190815260200160002060009054906101000a900460ff169050919050565b6110f4611c97565b83816000019073ffffffffffffffffffffffffffffffffffffffff16908173ffffffffffffffffffffffffffffffffffffffff168152505081816020019073ffffffffffffffffffffffffffffffffffffffff16908173ffffffffffffffffffffffffffffffffffffffff1681525050828160400181905250600081606001901515908115158152505060066000815480929190611191906127ba565b91905055508060076000600654815260200190815260200160002060008201518160000160006101000a81548173ffffffffffffffffffffffffffffffffffffffff021916908373ffffffffffffffffffffffffffffffffffffffff16021790555060208201518160010160006101000a81548173ffffffffffffffffffffffffffffffffffffffff021916908373ffffffffffffffffffffffffffffffffffffffff1602179055506040820151816002019080519060200190611256929190611b87565b5060608201518160030160006101000a81548160ff02191690831515021790555090505050505050565b60006020528160005260406000206020528060005260406000206000915091505080546112ac90612757565b80601f01602080910402602001604051908101604052809291908181526020018280546112d890612757565b80156113255780601f106112fa57610100808354040283529160200191611325565b820191906000526020600020905b81548152906001019060200180831161130857829003601f168201915b505050505081565b60085481565b6000600160008473ffffffffffffffffffffffffffffffffffffffff1673ffffffffffffffffffffffffffffffffffffffff16815260200190815260200160002090506040518060400160405280600281526020017f4e410000000000000000000000000000000000000000000000000000000000008152506000808573ffffffffffffffffffffffffffffffffffffffff1673ffffffffffffffffffffffffffffffffffffffff16815260200190815260200160002060008473ffffffffffffffffffffffffffffffffffffffff1673ffffffffffffffffffffffffffffffffffffffff168152602001908152602001600020908051906020019061143a929190611b87565b5080600160008573ffffffffffffffffffffffffffffffffffffffff1673ffffffffffffffffffffffffffffffffffffffff1681526020019081526020016000206000820160009054906101000a900473ffffffffffffffffffffffffffffffffffffffff168160000160006101000a81548173ffffffffffffffffffffffffffffffffffffffff021916908373ffffffffffffffffffffffffffffffffffffffff16021790555060018201816001019080546114f8929190611ced565b506002820160009054906101000a900460ff168160020160006101000a81548160ff021916908315150217905550905050505050565b60001515600460008373ffffffffffffffffffffffffffffffffffffffff1673ffffffffffffffffffffffffffffffffffffffff16815260200190815260200160002060009054906101000a900460ff1615151461158b57600080fd5b6003819080600181540180825580915050600190039060005260206000200160009091909190916101000a81548173ffffffffffffffffffffffffffffffffffffffff021916908373ffffffffffffffffffffffffffffffffffffffff1602179055506001600460008373ffffffffffffffffffffffffffffffffffffffff1673ffffffffffffffffffffffffffffffffffffffff16815260200190815260200160002060006101000a81548160ff0219169083151502179055507f1f1be2ab28ed85ac7f08419858df854a963d31331ea13df98f1ba5c8425253168160405161167591906123b3565b60405180910390a150565b611688611b3b565b600260008381526020019081526020016000206040518060c0016040529081600082015481526020016001820180546116c090612757565b80601f01602080910402602001604051908101604052809291908181526020018280546116ec90612757565b80156117395780601f1061170e57610100808354040283529160200191611739565b820191906000526020600020905b81548152906001019060200180831161171c57829003601f168201915b5050505050815260200160028201805461175290612757565b80601f016020809104026020016040519081016040528092919081815260200182805461177e90612757565b80156117cb5780601f106117a0576101008083540402835291602001916117cb565b820191906000526020600020905b8154815290600101906020018083116117ae57829003601f168201915b505050505081526020016003820180546117e490612757565b80601f016020809104026020016040519081016040528092919081815260200182805461181090612757565b801561185d5780601f106118325761010080835404028352916020019161185d565b820191906000526020600020905b81548152906001019060200180831161184057829003601f168201915b505050505081526020016004820160009054906101000a900473ffffffffffffffffffffffffffffffffffffffff1673ffffffffffffffffffffffffffffffffffffffff1673ffffffffffffffffffffffffffffffffffffffff1681526020016005820180546118cc90612757565b80601f01602080910402602001604051908101604052809291908181526020018280546118f890612757565b80156119455780601f1061191a57610100808354040283529160200191611945565b820191906000526020600020905b81548152906001019060200180831161192857829003601f168201915b5050505050815250509050919050565b606060038054806020026020016040519081016040528092919081815260200182805480156119d957602002820191906000526020600020905b8160009054906101000a900473ffffffffffffffffffffffffffffffffffffffff1673ffffffffffffffffffffffffffffffffffffffff168152602001906001019080831161198f575b5050505050905090565b6119eb611d3f565b600160008373ffffffffffffffffffffffffffffffffffffffff1673ffffffffffffffffffffffffffffffffffffffff1681526020019081526020016000206040518060600160405290816000820160009054906101000a900473ffffffffffffffffffffffffffffffffffffffff1673ffffffffffffffffffffffffffffffffffffffff1673ffffffffffffffffffffffffffffffffffffffff16815260200160018201805480602002602001604051908101604052809291908181526020018280548015611b1057602002820191906000526020600020905b8160009054906101000a900473ffffffffffffffffffffffffffffffffffffffff1673ffffffffffffffffffffffffffffffffffffffff1681526020019060010190808311611ac6575b505050505081526020016002820160009054906101000a900460ff1615151515815250509050919050565b6040518060c0016040528060008152602001606081526020016060815260200160608152602001600073ffffffffffffffffffffffffffffffffffffffff168152602001606081525090565b828054611b9390612757565b90600052602060002090601f016020900481019282611bb55760008555611bfc565b82601f10611bce57805160ff1916838001178555611bfc565b82800160010185558215611bfc579182015b82811115611bfb578251825591602001919060010190611be0565b5b509050611c099190611d78565b5090565b828054828255906000526020600020908101928215611c86579160200282015b82811115611c855782518260006101000a81548173ffffffffffffffffffffffffffffffffffffffff021916908373ffffffffffffffffffffffffffffffffffffffff16021790555091602001919060010190611c2d565b5b509050611c939190611d78565b5090565b6040518060800160405280600073ffffffffffffffffffffffffffffffffffffffff168152602001600073ffffffffffffffffffffffffffffffffffffffff168152602001606081526020016000151581525090565b828054828255906000526020600020908101928215611d2e5760005260206000209182015b82811115611d2d578254825591600101919060010190611d12565b5b509050611d3b9190611d78565b5090565b6040518060600160405280600073ffffffffffffffffffffffffffffffffffffffff168152602001606081526020016000151581525090565b5b80821115611d91576000816000905550600101611d79565b5090565b6000611da8611da3846124fc565b6124d7565b905082815260208101848484011115611dc057600080fd5b611dcb848285612715565b509392505050565b600081359050611de2816128d0565b92915050565b600081359050611df7816128e7565b92915050565b600082601f830112611e0e57600080fd5b8135611e1e848260208601611d95565b91505092915050565b600081359050611e36816128fe565b92915050565b600060208284031215611e4e57600080fd5b6000611e5c84828501611dd3565b91505092915050565b600060208284031215611e7757600080fd5b6000611e8584828501611de8565b91505092915050565b600080600060608486031215611ea357600080fd5b6000611eb186828701611de8565b9350506020611ec286828701611de8565b925050604084013567ffffffffffffffff811115611edf57600080fd5b611eeb86828701611dfd565b9150509250925092565b60008060408385031215611f0857600080fd5b6000611f1685828601611dd3565b9250506020611f2785828601611dd3565b9150509250929050565b600080600060608486031215611f4657600080fd5b6000611f5486828701611dd3565b935050602084013567ffffffffffffffff811115611f7157600080fd5b611f7d86828701611dfd565b9250506040611f8e86828701611dd3565b9150509250925092565b600080600080600060a08688031215611fb057600080fd5b600086013567ffffffffffffffff811115611fca57600080fd5b611fd688828901611dfd565b955050602086013567ffffffffffffffff811115611ff357600080fd5b611fff88828901611dfd565b945050604061201088828901611de8565b935050606086013567ffffffffffffffff81111561202d57600080fd5b61203988828901611dfd565b925050608086013567ffffffffffffffff81111561205657600080fd5b61206288828901611dfd565b9150509295509295909350565b60006020828403121561208157600080fd5b600061208f84828501611e27565b91505092915050565b60006120a483836120bf565b60208301905092915050565b6120b9816126df565b82525050565b6120c881612685565b82525050565b6120d781612685565b82525050565b60006120e88261253d565b6120f28185612560565b93506120fd8361252d565b8060005b8381101561212e5781516121158882612098565b975061212083612553565b925050600181019050612101565b5085935050505092915050565b60006121468261253d565b6121508185612571565b935061215b8361252d565b8060005b8381101561218c5781516121738882612098565b975061217e83612553565b92505060018101905061215f565b5085935050505092915050565b6121a2816126a9565b82525050565b6121b1816126a9565b82525050565b60006121c282612548565b6121cc8185612582565b93506121dc818560208601612724565b6121e5816128bf565b840191505092915050565b60006121fb82612548565b6122058185612593565b9350612215818560208601612724565b61221e816128bf565b840191505092915050565b600060808301600083015161224160008601826120bf565b50602083015161225460208601826120bf565b506040830151848203604086015261226c82826121b7565b91505060608301516122816060860182612199565b508091505092915050565b60006060830160008301516122a460008601826120bf565b50602083015184820360208601526122bc82826120dd565b91505060408301516122d16040860182612199565b508091505092915050565b600060c0830160008301516122f4600086018261237a565b506020830151848203602086015261230c82826121b7565b9150506040830151848203604086015261232682826121b7565b9150506060830151848203606086015261234082826121b7565b915050608083015161235560808601826120bf565b5060a083015184820360a086015261236d82826121b7565b9150508091505092915050565b612383816126d5565b82525050565b612392816126d5565b82525050565b60006020820190506123ad60008301846120ce565b92915050565b60006020820190506123c860008301846120b0565b92915050565b60006040820190506123e360008301856120b0565b6123f060208301846120b0565b9392505050565b60006020820190508181036000830152612411818461213b565b905092915050565b600060208201905061242e60008301846121a8565b92915050565b6000602082019050818103600083015261244e81846121f0565b905092915050565b600060208201905081810360008301526124708184612229565b905092915050565b60006020820190508181036000830152612492818461228c565b905092915050565b600060208201905081810360008301526124b481846122dc565b905092915050565b60006020820190506124d16000830184612389565b92915050565b60006124e16124f2565b90506124ed8282612789565b919050565b6000604051905090565b600067ffffffffffffffff82111561251757612516612890565b5b612520826128bf565b9050602081019050919050565b6000819050602082019050919050565b600081519050919050565b600081519050919050565b6000602082019050919050565b600082825260208201905092915050565b600082825260208201905092915050565b600082825260208201905092915050565b600082825260208201905092915050565b60006125af826126d5565b91506125ba836126d5565b9250827fffffffffffffffffffffffffffffffffffffffffffffffffffffffffffffffff038211156125ef576125ee612803565b5b828201905092915050565b6000612605826126d5565b9150612610836126d5565b9250826126205761261f612832565b5b828204905092915050565b6000612636826126d5565b9150612641836126d5565b9250817fffffffffffffffffffffffffffffffffffffffffffffffffffffffffffffffff048311821515161561267a57612679612803565b5b828202905092915050565b6000612690826126b5565b9050919050565b60006126a2826126b5565b9050919050565b60008115159050919050565b600073ffffffffffffffffffffffffffffffffffffffff82169050919050565b6000819050919050565b60006126ea826126f1565b9050919050565b60006126fc82612703565b9050919050565b600061270e826126b5565b9050919050565b82818337600083830152505050565b60005b83811015612742578082015181840152602081019050612727565b83811115612751576000848401525b50505050565b6000600282049050600182168061276f57607f821691505b6020821081141561278357612782612861565b5b50919050565b612792826128bf565b810181811067ffffffffffffffff821117156127b1576127b0612890565b5b80604052505050565b60006127c5826126d5565b91507fffffffffffffffffffffffffffffffffffffffffffffffffffffffffffffffff8214156127f8576127f7612803565b5b600182019050919050565b7f4e487b7100000000000000000000000000000000000000000000000000000000600052601160045260246000fd5b7f4e487b7100000000000000000000000000000000000000000000000000000000600052601260045260246000fd5b7f4e487b7100000000000000000000000000000000000000000000000000000000600052602260045260246000fd5b7f4e487b7100000000000000000000000000000000000000000000000000000000600052604160045260246000fd5b6000601f19601f8301169050919050565b6128d981612685565b81146128e457600080fd5b50565b6128f081612697565b81146128fb57600080fd5b50565b612907816126d5565b811461291257600080fd5b5056fea2646970667358221220d8d0687537af02564a412ca26fa93ff5dabd7afa1d99c490f7c2f2040e9a607064736f6c63430008010033",
  "immutableReferences": {},
  "source": "// SPDX-License-Identifier: MIT\r\npragma solidity ^0.8.0;\r\npragma experimental ABIEncoderV2;\r\ncontract VidShield\r\n{\r\n    struct Video\r\n    {\r\n        uint id;\r\n        string livepeerlink;\r\n        string thumbnail;\r\n        string title;\r\n        address creator;\r\n        string date;\r\n    }\r\n\r\n    struct User\r\n    {\r\n        address viewer;\r\n        address[] allcreatorsubscribed;\r\n        bool block;\r\n    }\r\n    mapping (address=>mapping(address=>string)) public creatorssubscribed;\r\n\r\n    mapping(address=>User) userdata;\r\n\r\n    mapping(uint=>Video) creatorvideos;\r\n    address[] registeredCreatorslist;\r\n    //uint public registeredCreators=0;\r\n    mapping(address=>bool) creatorpresence;\r\n\r\n    mapping(address=>bool) viewerpresence;\r\n    \r\n    struct Request\r\n    {\r\n        address reporter;\r\n        address pirate;\r\n        string movielink;\r\n        bool fulfill;\r\n    }\r\n    uint public requestcounter=0;\r\n    mapping(uint=>Request) reporterrequests;\r\n    \r\n    event VideoRegistered(uint videoId);\r\n    event creatorRegisteredConfirm(address creator);\r\n    event viewerSubscribedCreator(address viewer,address creator);\r\n    event PirateReported(address pirate);\r\n    //Movie m;\r\n\r\n    uint public vidcounter=0;\r\n    address payable admin;\r\n    constructor()\r\n    {\r\n        admin = payable(msg.sender);\r\n    }\r\n    function registerVideo(string memory title, string memory livepeerlink,address payable creator,string memory date,string memory thumbnail)public\r\n    {\r\n        require(creatorpresence[creator]==true);\r\n        Video memory vid;\r\n        vidcounter+=1;\r\n        vid.id = vidcounter;\r\n        vid.title = title;\r\n        vid.livepeerlink = livepeerlink;\r\n        vid.thumbnail = thumbnail;\r\n        vid.creator = creator;\r\n        vid.date = date;\r\n        creatorvideos[vid.id] = vid; \r\n        emit VideoRegistered(vid.id);\r\n    }\r\n\r\n    function registerCreator(address payable creator)public\r\n    {\r\n        require(creatorpresence[creator]==false);\r\n        registeredCreatorslist.push(creator);\r\n        creatorpresence[creator] = true;\r\n        emit creatorRegisteredConfirm(creator);\r\n    }\r\n\r\n    function getAllRegisteredCreators() public view returns(address[] memory)\r\n    {\r\n        return registeredCreatorslist;\r\n    }\r\n\r\n    function getCountOfAllRegisteredCreators()public view returns(uint)\r\n    {\r\n        return registeredCreatorslist.length;\r\n    }\r\n\r\n    function checkIfAlreadyCreator(address creator)public view returns(bool)\r\n    {\r\n        return creatorpresence[creator];\r\n    }\r\n\r\n    function checkIfAlreadyViewer(address viewer)public view returns(bool)\r\n    {\r\n        return viewerpresence[viewer];\r\n    }\r\n\r\n    function registerViewer(address payable viewer)public payable\r\n    {\r\n        require(viewerpresence[viewer]==false);\r\n        viewerpresence[viewer] = true;\r\n        payable(admin).transfer(msg.value);\r\n    }\r\n\r\n    function subscribeCreator(address payable viewer,address payable creator,string memory subscriptionenddate)public payable\r\n    {\r\n        User storage getdata= userdata[viewer];\r\n        address[] storage allcreators = getdata.allcreatorsubscribed;\r\n        allcreators.push(creator);\r\n        User memory user=User(viewer,allcreators,false);\r\n        uint payToAdmin = (msg.value)/5;\r\n        uint payToCreator = (msg.value*4)/5;\r\n        payable(admin).transfer(payToAdmin);\r\n        payable(creator).transfer(payToCreator);\r\n        //user.viewer = viewer;\r\n        //user.allcreatorsubscribed.push(creator);\r\n        //user.creatorssubscribed[creator]=subscriptionenddate;\r\n        creatorssubscribed[viewer][creator]=subscriptionenddate;\r\n        userdata[viewer] = user;\r\n        emit viewerSubscribedCreator(viewer,creator);\r\n    }\r\n\r\n    function getCreatorsforViewer(address viewer)public view returns(address[] memory)\r\n    {\r\n        return userdata[viewer].allcreatorsubscribed;\r\n    }\r\n\r\n    function unsubscribeCreator(address viewer,address creator)public\r\n    {\r\n        User storage user = userdata[viewer];\r\n        creatorssubscribed[viewer][creator] = \"NA\";\r\n        userdata[viewer] = user;\r\n    }\r\n\r\n    function getVideoData(uint id) public view returns(Video memory)\r\n    {\r\n        return creatorvideos[id];\r\n    }\r\n\r\n    function getUserData(address viewer) public view returns(User memory)\r\n    {\r\n        return userdata[viewer];\r\n    }\r\n\r\n    function addReporter(address reporter,string memory movielink,address pirate)public\r\n    {\r\n        //address[] storage array=reporters[id];\r\n        //array.push(reporter);\r\n        //reporters[id]=array;\r\n        Request memory r;\r\n        r.reporter=reporter;\r\n        r.pirate = pirate;\r\n        //r.id=id;\r\n        r.movielink=movielink;\r\n        r.fulfill=false;\r\n        \r\n        requestcounter++;\r\n        reporterrequests[requestcounter]=r;\r\n    }\r\n   \r\n    function getreporterrequest(uint key)public view returns(Request memory)\r\n    {\r\n        return reporterrequests[key];\r\n    }\r\n\r\n    function blockUser(address pirate)public\r\n    {\r\n        User memory data = userdata[pirate];\r\n        data.block=true;\r\n        userdata[pirate]=data;\r\n        emit PirateReported(pirate);\r\n    }\r\n}",
  "sourcePath": "D:\\Ethernals\\VidShield\\contracts\\VidShield.sol",
  "compiler": {
    "name": "solc",
    "version": "0.8.1+commit.df193b15.Emscripten.clang"
  },
  "schemaVersion": "3.4.4",
  "updatedAt": "2022-03-20T19:33:07.455Z",
  "networkType": "ethereum",
  "devdoc": {
    "kind": "dev",
    "methods": {},
    "version": 1
  },
  "userdoc": {
    "kind": "user",
    "methods": {},
    "version": 1
  }
}