{
  "contractName": "VidShield",
  "abi": [
    {
      "inputs": [],
      "stateMutability": "nonpayable",
      "type": "constructor"
    },
    {
      "anonymous": false,
      "inputs": [
        {
          "indexed": false,
          "internalType": "address",
          "name": "userAddress",
          "type": "address"
        },
        {
          "indexed": false,
          "internalType": "address payable",
          "name": "relayerAddress",
          "type": "address"
        },
        {
          "indexed": false,
          "internalType": "bytes",
          "name": "functionSignature",
          "type": "bytes"
        }
      ],
      "name": "MetaTransactionExecuted",
      "type": "event"
    },
    {
      "anonymous": false,
      "inputs": [
        {
          "indexed": false,
          "internalType": "address",
          "name": "pirate",
          "type": "address"
        }
      ],
      "name": "PirateReported",
      "type": "event"
    },
    {
      "anonymous": false,
      "inputs": [
        {
          "indexed": false,
          "internalType": "uint256",
          "name": "videoId",
          "type": "uint256"
        }
      ],
      "name": "VideoRegistered",
      "type": "event"
    },
    {
      "anonymous": false,
      "inputs": [
        {
          "indexed": false,
          "internalType": "address",
          "name": "creator",
          "type": "address"
        }
      ],
      "name": "creatorRegisteredConfirm",
      "type": "event"
    },
    {
      "anonymous": false,
      "inputs": [
        {
          "indexed": false,
          "internalType": "address",
          "name": "viewer",
          "type": "address"
        },
        {
          "indexed": false,
          "internalType": "address",
          "name": "creator",
          "type": "address"
        }
      ],
      "name": "viewerSubscribedCreator",
      "type": "event"
    },
    {
      "inputs": [
        {
          "internalType": "address",
          "name": "",
          "type": "address"
        },
        {
          "internalType": "address",
          "name": "",
          "type": "address"
        }
      ],
      "name": "creatorssubscribed",
      "outputs": [
        {
          "internalType": "string",
          "name": "",
          "type": "string"
        }
      ],
      "stateMutability": "view",
      "type": "function",
      "constant": true
    },
    {
      "inputs": [
        {
          "internalType": "address",
          "name": "userAddress",
          "type": "address"
        },
        {
          "internalType": "bytes",
          "name": "functionSignature",
          "type": "bytes"
        },
        {
          "internalType": "bytes32",
          "name": "sigR",
          "type": "bytes32"
        },
        {
          "internalType": "bytes32",
          "name": "sigS",
          "type": "bytes32"
        },
        {
          "internalType": "uint8",
          "name": "sigV",
          "type": "uint8"
        }
      ],
      "name": "executeMetaTransaction",
      "outputs": [
        {
          "internalType": "bytes",
          "name": "",
          "type": "bytes"
        }
      ],
      "stateMutability": "payable",
      "type": "function",
      "payable": true
    },
    {
      "inputs": [
        {
          "internalType": "address",
          "name": "user",
          "type": "address"
        }
      ],
      "name": "getNonce",
      "outputs": [
        {
          "internalType": "uint256",
          "name": "nonce",
          "type": "uint256"
        }
      ],
      "stateMutability": "view",
      "type": "function",
      "constant": true
    },
    {
      "inputs": [
        {
          "internalType": "uint256",
          "name": "",
          "type": "uint256"
        }
      ],
      "name": "reporterrequests",
      "outputs": [
        {
          "internalType": "address",
          "name": "reporter",
          "type": "address"
        },
        {
          "internalType": "address",
          "name": "pirate",
          "type": "address"
        },
        {
          "internalType": "string",
          "name": "movielink",
          "type": "string"
        },
        {
          "internalType": "bool",
          "name": "fulfill",
          "type": "bool"
        }
      ],
      "stateMutability": "view",
      "type": "function",
      "constant": true
    },
    {
      "inputs": [],
      "name": "requestcounter",
      "outputs": [
        {
          "internalType": "uint256",
          "name": "",
          "type": "uint256"
        }
      ],
      "stateMutability": "view",
      "type": "function",
      "constant": true
    },
    {
      "inputs": [],
      "name": "vidcounter",
      "outputs": [
        {
          "internalType": "uint256",
          "name": "",
          "type": "uint256"
        }
      ],
      "stateMutability": "view",
      "type": "function",
      "constant": true
    },
    {
      "inputs": [
        {
          "internalType": "string",
          "name": "title",
          "type": "string"
        },
        {
          "internalType": "string",
          "name": "livepeerlink",
          "type": "string"
        },
        {
          "internalType": "address payable",
          "name": "creator",
          "type": "address"
        },
        {
          "internalType": "string",
          "name": "date",
          "type": "string"
        },
        {
          "internalType": "string",
          "name": "thumbnail",
          "type": "string"
        }
      ],
      "name": "registerVideo",
      "outputs": [],
      "stateMutability": "nonpayable",
      "type": "function"
    },
    {
      "inputs": [
        {
          "internalType": "address payable",
          "name": "creator",
          "type": "address"
        }
      ],
      "name": "registerCreator",
      "outputs": [],
      "stateMutability": "nonpayable",
      "type": "function"
    },
    {
      "inputs": [],
      "name": "getAllRegisteredCreators",
      "outputs": [
        {
          "internalType": "address[]",
          "name": "",
          "type": "address[]"
        }
      ],
      "stateMutability": "view",
      "type": "function",
      "constant": true
    },
    {
      "inputs": [],
      "name": "getCountOfAllRegisteredCreators",
      "outputs": [
        {
          "internalType": "uint256",
          "name": "",
          "type": "uint256"
        }
      ],
      "stateMutability": "view",
      "type": "function",
      "constant": true
    },
    {
      "inputs": [
        {
          "internalType": "address",
          "name": "creator",
          "type": "address"
        }
      ],
      "name": "checkIfAlreadyCreator",
      "outputs": [
        {
          "internalType": "bool",
          "name": "",
          "type": "bool"
        }
      ],
      "stateMutability": "view",
      "type": "function",
      "constant": true
    },
    {
      "inputs": [
        {
          "internalType": "address",
          "name": "viewer",
          "type": "address"
        }
      ],
      "name": "checkIfAlreadyViewer",
      "outputs": [
        {
          "internalType": "bool",
          "name": "",
          "type": "bool"
        }
      ],
      "stateMutability": "view",
      "type": "function",
      "constant": true
    },
    {
      "inputs": [
        {
          "internalType": "address payable",
          "name": "viewer",
          "type": "address"
        }
      ],
      "name": "registerViewer",
      "outputs": [],
      "stateMutability": "payable",
      "type": "function",
      "payable": true
    },
    {
      "inputs": [
        {
          "internalType": "address payable",
          "name": "viewer",
          "type": "address"
        },
        {
          "internalType": "address payable",
          "name": "creator",
          "type": "address"
        },
        {
          "internalType": "string",
          "name": "subscriptionenddate",
          "type": "string"
        }
      ],
      "name": "subscribeCreator",
      "outputs": [],
      "stateMutability": "payable",
      "type": "function",
      "payable": true
    },
    {
      "inputs": [
        {
          "internalType": "address",
          "name": "viewer",
          "type": "address"
        }
      ],
      "name": "getCreatorsforViewer",
      "outputs": [
        {
          "internalType": "address[]",
          "name": "",
          "type": "address[]"
        }
      ],
      "stateMutability": "view",
      "type": "function",
      "constant": true
    },
    {
      "inputs": [
        {
          "internalType": "address",
          "name": "viewer",
          "type": "address"
        },
        {
          "internalType": "address",
          "name": "creator",
          "type": "address"
        }
      ],
      "name": "unsubscribeCreator",
      "outputs": [],
      "stateMutability": "nonpayable",
      "type": "function"
    },
    {
      "inputs": [
        {
          "internalType": "uint256",
          "name": "id",
          "type": "uint256"
        }
      ],
      "name": "getVideoData",
      "outputs": [
        {
          "components": [
            {
              "internalType": "uint256",
              "name": "id",
              "type": "uint256"
            },
            {
              "internalType": "string",
              "name": "livepeerlink",
              "type": "string"
            },
            {
              "internalType": "string",
              "name": "thumbnail",
              "type": "string"
            },
            {
              "internalType": "string",
              "name": "title",
              "type": "string"
            },
            {
              "internalType": "address",
              "name": "creator",
              "type": "address"
            },
            {
              "internalType": "string",
              "name": "date",
              "type": "string"
            }
          ],
          "internalType": "struct VidShield.Video",
          "name": "",
          "type": "tuple"
        }
      ],
      "stateMutability": "view",
      "type": "function",
      "constant": true
    },
    {
      "inputs": [
        {
          "internalType": "address",
          "name": "viewer",
          "type": "address"
        }
      ],
      "name": "getUserData",
      "outputs": [
        {
          "components": [
            {
              "internalType": "address",
              "name": "viewer",
              "type": "address"
            },
            {
              "internalType": "address[]",
              "name": "allcreatorsubscribed",
              "type": "address[]"
            },
            {
              "internalType": "bool",
              "name": "block",
              "type": "bool"
            }
          ],
          "internalType": "struct VidShield.User",
          "name": "",
          "type": "tuple"
        }
      ],
      "stateMutability": "view",
      "type": "function",
      "constant": true
    },
    {
      "inputs": [
        {
          "internalType": "address",
          "name": "reporter",
          "type": "address"
        },
        {
          "internalType": "string",
          "name": "movielink",
          "type": "string"
        },
        {
          "internalType": "address",
          "name": "pirate",
          "type": "address"
        }
      ],
      "name": "addReporter",
      "outputs": [],
      "stateMutability": "nonpayable",
      "type": "function"
    },
    {
      "inputs": [
        {
          "internalType": "uint256",
          "name": "requestid",
          "type": "uint256"
        }
      ],
      "name": "cancelRequest",
      "outputs": [],
      "stateMutability": "nonpayable",
      "type": "function"
    },
    {
      "inputs": [
        {
          "internalType": "uint256",
          "name": "requestid",
          "type": "uint256"
        }
      ],
      "name": "getReporterrequest",
      "outputs": [
        {
          "components": [
            {
              "internalType": "address",
              "name": "reporter",
              "type": "address"
            },
            {
              "internalType": "address",
              "name": "pirate",
              "type": "address"
            },
            {
              "internalType": "string",
              "name": "movielink",
              "type": "string"
            },
            {
              "internalType": "bool",
              "name": "fulfill",
              "type": "bool"
            }
          ],
          "internalType": "struct VidShield.Request",
          "name": "",
          "type": "tuple"
        }
      ],
      "stateMutability": "view",
      "type": "function",
      "constant": true
    },
    {
      "inputs": [
        {
          "internalType": "address",
          "name": "pirate",
          "type": "address"
        },
        {
          "internalType": "uint256",
          "name": "requestid",
          "type": "uint256"
        }
      ],
      "name": "blockUser",
      "outputs": [],
      "stateMutability": "payable",
      "type": "function",
      "payable": true
    }
  ],
  "bytecode": "0x608060405260006008556000600a553480156200001b57600080fd5b5060405180604001604052806009815260200168159a5914da1a595b1960ba1b815250604051806040016040528060018152602001603160f81b81525081816040518060800160405280604f815260200162002488604f91398051906020012082805190602001208280519060200120306200009c620000ea60201b60201c565b604051620000b2959493929190602001620000ee565b60408051601f1981840301815291905280516020909101206000555050600b80546001600160a01b03191633179055506200011a9050565b4690565b948552602085019390935260408401919091526001600160a01b03166060830152608082015260a00190565b61235e806200012a6000396000f3fe6080604052600436106101355760003560e01c80639222a810116100ab578063cb484b691161006f578063cb484b691461034e578063cd64c4a81461036e578063f249e3cc1461038e578063f2e8b67d146103bb578063fe5483c4146103ce578063ffc9896b146103e357610135565b80639222a810146102c457806392e23179146102d9578063940e1d2c146102f95780639a8b551314610319578063c24453f21461033957610135565b806331702580116100fd57806331702580146101f7578063352607c1146102175780634f5b0a3014610244578063581652d1146102575780635d17aab81461026a5780636919e53a1461029757610135565b8063034b512b1461013a5780630c53c51c146101655780631f183982146101855780632d0335ab146101b55780633015394c146101d5575b600080fd5b34801561014657600080fd5b5061014f610410565b60405161015c91906121bb565b60405180910390f35b610178610173366004611b82565b610416565b60405161015c9190611f48565b34801561019157600080fd5b506101a56101a0366004611d5a565b6105d7565b60405161015c9493929190611e6f565b3480156101c157600080fd5b5061014f6101d0366004611ace565b610698565b3480156101e157600080fd5b506101f56101f0366004611d5a565b6106b3565b005b34801561020357600080fd5b506101f5610212366004611c9d565b610819565b34801561022357600080fd5b50610237610232366004611ace565b61097c565b60405161015c9190611eae565b6101f5610252366004611aea565b6109f6565b6101f5610265366004611ace565b610c2b565b34801561027657600080fd5b5061028a610285366004611d5a565b610c75565b60405161015c919061205b565b3480156102a357600080fd5b506102b76102b2366004611ace565b610d63565b60405161015c9190611efb565b3480156102d057600080fd5b5061014f610d81565b3480156102e557600080fd5b506102b76102f4366004611ace565b610d87565b34801561030557600080fd5b506101f5610314366004611c10565b610da5565b34801561032557600080fd5b50610178610334366004611b4a565b610e66565b34801561034557600080fd5b5061014f610f0b565b34801561035a57600080fd5b506101f5610369366004611b4a565b610f11565b34801561037a57600080fd5b506101f5610389366004611ace565b610fd0565b34801561039a57600080fd5b506103ae6103a9366004611d5a565b611095565b60405161015c9190612127565b6101f56103c9366004611c72565b61132b565b3480156103da57600080fd5b50610237611610565b3480156103ef57600080fd5b506104036103fe366004611ace565b611672565b60405161015c91906120af565b60085481565b606060006104238661171d565b90506000356001600160e01b0319908116908216141561045e5760405162461bcd60e51b815260040161045590611f92565b60405180910390fd5b604080516060810182526001600160a01b0389166000818152600160209081529084902054835282015290810187905261049b8882888888611739565b6104b75760405162461bcd60e51b81526004016104559061201a565b6001600160a01b0388166000908152600160208190526040909120546104dc916117e5565b6001600160a01b0389166000908152600160209081526040808320939093559151909182913091610511918c918e9101611dba565b60408051601f198184030181529082905261052b91611d9e565b6000604051808303816000865af19150503d8060008114610568576040519150601f19603f3d011682016040523d82523d6000602084013e61056d565b606091505b50915091508161058f5760405162461bcd60e51b815260040161045590611f5b565b7f5845892132946850460bff5a0083f71031bc5bf9aadcd40f1de79423eac9b10b8a338b6040516105c293929190611e3a565b60405180910390a19998505050505050505050565b6009602052600090815260409020805460018201546002830180546001600160a01b0393841694929093169261060c9061224b565b80601f01602080910402602001604051908101604052809291908181526020018280546106389061224b565b80156106855780601f1061065a57610100808354040283529160200191610685565b820191906000526020600020905b81548152906001019060200180831161066857829003601f168201915b5050506003909301549192505060ff1684565b6001600160a01b031660009081526001602052604090205490565b6000818152600960209081526040808320815160808101835281546001600160a01b0390811682526001830154169381019390935260028101805491928401916106fc9061224b565b80601f01602080910402602001604051908101604052809291908181526020018280546107289061224b565b80156107755780601f1061074a57610100808354040283529160200191610775565b820191906000526020600020905b81548152906001019060200180831161075857829003601f168201915b50505091835250506003919091015460ff161515602091820152600160608301819052600085815260098352604090819020845181546001600160a01b039182166001600160a01b0319918216178355868601519483018054959092169416939093179092558301518051939450849391926107f992600285019290910190611878565b50606091909101516003909101805460ff19169115159190911790555050565b6001600160a01b03831660009081526006602052604090205460ff16151560011461084357600080fd5b61084b6118fc565b6001600a600082825461085e91906121c4565b9091555050600a5480825260608201879052602080830187815260408085018690526001600160a01b038816608086015260a0850187905260009384526004835290922083518155915180518493926108be926001850192910190611878565b50604082015180516108da916002840191602090910190611878565b50606082015180516108f6916003840191602090910190611878565b5060808201516004820180546001600160a01b0319166001600160a01b0390921691909117905560a08201518051610938916005840191602090910190611878565b505081516040517f67fbc59441699d813d53c64203e5bec4c44ade430c0f30a41089feaa57619362925061096c91906121bb565b60405180910390a1505050505050565b6001600160a01b0381166000908152600360209081526040918290206001018054835181840281018401909452808452606093928301828280156109e957602002820191906000526020600020905b81546001600160a01b031681526001909101906020018083116109cb575b505050505090505b919050565b6001600160a01b03838116600081815260036020908152604080832060018082018054918201815580865284862090910180546001600160a01b031916978a1697909717909655815160608101835294855285548251818502810185019093528083529095949283810192918691830182828015610a9d57602002820191906000526020600020905b81546001600160a01b03168152600190910190602001808311610a7f575b505050918352505060006020909101819052909150610abd6005346121dc565b905060006005610ace3460046121fc565b610ad891906121dc565b600b546040519192506001600160a01b03169083156108fc029084906000818181858888f19350505050158015610b13573d6000803e3d6000fd5b506040516001600160a01b0388169082156108fc029083906000818181858888f19350505050158015610b4a573d6000803e3d6000fd5b506001600160a01b038089166000908152600260209081526040808320938b1683529281529190208751610b8092890190611878565b506001600160a01b038881166000908152600360209081526040909120855181546001600160a01b0319169316929092178255848101518051869392610bcd92600185019291019061193b565b50604091820151600291909101805460ff1916911515919091179055517f37927fbcafc58533286cad12a4edbc7cd66341c33733d1dbb9ae45fa3523c5a290610c19908a908a90611e20565b60405180910390a15050505050505050565b6001600160a01b03811660009081526007602052604090205460ff1615610c5157600080fd5b6001600160a01b03166000908152600760205260409020805460ff19166001179055565b610c7d611990565b600082815260096020908152604091829020825160808101845281546001600160a01b039081168252600183015416928101929092526002810180549293919291840191610cca9061224b565b80601f0160208091040260200160405190810160405280929190818152602001828054610cf69061224b565b8015610d435780601f10610d1857610100808354040283529160200191610d43565b820191906000526020600020905b815481529060010190602001808311610d2657829003601f168201915b50505091835250506003919091015460ff16151560209091015292915050565b6001600160a01b031660009081526006602052604090205460ff1690565b60055490565b6001600160a01b031660009081526007602052604090205460ff1690565b610dad611990565b6001600160a01b03808516825282166020820152604081018390526000606082018190526008805491610ddf83612286565b9091555050600854600090815260096020908152604091829020835181546001600160a01b039182166001600160a01b031991821617835583860151600184018054919093169116179055918301518051849392610e44926002850192910190611878565b50606091909101516003909101805460ff191691151591909117905550505050565b600260209081526000928352604080842090915290825290208054610e8a9061224b565b80601f0160208091040260200160405190810160405280929190818152602001828054610eb69061224b565b8015610f035780601f10610ed857610100808354040283529160200191610f03565b820191906000526020600020905b815481529060010190602001808311610ee657829003601f168201915b505050505081565b600a5481565b6001600160a01b038083166000818152600360209081526040808320815180830183526002808252614e4160f01b828601908152968652845282852096881685529590925290912092519092610f68929091611878565b506001600160a01b038084166000908152600360205260409020825481546001600160a01b031916921691909117815560018083018054849392610faf92908401916119b8565b506002918201549101805460ff191660ff9092161515919091179055505050565b6001600160a01b03811660009081526006602052604090205460ff1615610ff657600080fd5b6005805460018082019092557f036b6384b5eca791c62761152d0c79bb0604c104a5fb6f4eb0703f3154bb3db00180546001600160a01b0319166001600160a01b03841690811790915560009081526006602052604090819020805460ff1916909217909155517f1f1be2ab28ed85ac7f08419858df854a963d31331ea13df98f1ba5c8425253169061108a908390611e0c565b60405180910390a150565b61109d6118fc565b600460008381526020019081526020016000206040518060c0016040529081600082015481526020016001820180546110d59061224b565b80601f01602080910402602001604051908101604052809291908181526020018280546111019061224b565b801561114e5780601f106111235761010080835404028352916020019161114e565b820191906000526020600020905b81548152906001019060200180831161113157829003601f168201915b505050505081526020016002820180546111679061224b565b80601f01602080910402602001604051908101604052809291908181526020018280546111939061224b565b80156111e05780601f106111b5576101008083540402835291602001916111e0565b820191906000526020600020905b8154815290600101906020018083116111c357829003601f168201915b505050505081526020016003820180546111f99061224b565b80601f01602080910402602001604051908101604052809291908181526020018280546112259061224b565b80156112725780601f1061124757610100808354040283529160200191611272565b820191906000526020600020905b81548152906001019060200180831161125557829003601f168201915b505050918352505060048201546001600160a01b031660208201526005820180546040909201916112a29061224b565b80601f01602080910402602001604051908101604052809291908181526020018280546112ce9061224b565b801561131b5780601f106112f05761010080835404028352916020019161131b565b820191906000526020600020905b8154815290600101906020018083116112fe57829003601f168201915b5050505050815250509050919050565b6001600160a01b03808316600090815260036020908152604080832081516060810183528154909516855260018101805483518186028101860190945280845294959491938581019392908301828280156113af57602002820191906000526020600020905b81546001600160a01b03168152600190910190602001808311611391575b50505091835250506002919091015460ff161515602091820152600160408381018290526001600160a01b0387811660009081526003855291909120845181546001600160a01b03191692169190911781558383015180519495508594919361141d9385019291019061193b565b506040918201516002918201805460ff1916911515919091179055600084815260096020908152838220845160808101865281546001600160a01b0390811682526001830154169281019290925292830180549294919392918401916114829061224b565b80601f01602080910402602001604051908101604052809291908181526020018280546114ae9061224b565b80156114fb5780601f106114d0576101008083540402835291602001916114fb565b820191906000526020600020905b8154815290600101906020018083116114de57829003601f168201915b50505091835250506003919091015460ff161515602090910152600160608201528051604051919250906001600160a01b038216903480156108fc02916000818181858888f19350505050158015611557573d6000803e3d6000fd5b50600084815260096020908152604091829020845181546001600160a01b039182166001600160a01b0319918216178355838701516001840180549190931691161790559184015180518593926115b5926002850192910190611878565b50606091909101516003909101805460ff19169115159190911790556040517f898e03c08749f8a493582fc0a6648a56bd8a498f9c1fed77bf87da7facb1d75890611601908790611e0c565b60405180910390a15050505050565b6060600580548060200260200160405190810160405280929190818152602001828054801561166857602002820191906000526020600020905b81546001600160a01b0316815260019091019060200180831161164a575b5050505050905090565b61167a6119f8565b6001600160a01b038083166000908152600360209081526040918290208251606081018452815490941684526001810180548451818502810185019095528085529193858401939092908301828280156116fd57602002820191906000526020600020905b81546001600160a01b031681526001909101906020018083116116df575b50505091835250506002919091015460ff16151560209091015292915050565b6000815160001415611731575060006109f1565b506020015190565b600080600161174f61174a886117f8565b611856565b8487876040516000815260200160405260405161176f9493929190611f2a565b6020604051602081039080840390855afa158015611791573d6000803e3d6000fd5b5050604051601f1901519150506001600160a01b0381166117c45760405162461bcd60e51b815260040161045590611fef565b866001600160a01b0316816001600160a01b03161491505095945050505050565b60006117f182846121c4565b9392505050565b60006040518060800160405280604381526020016122e660439139805160209182012083518483015160408087015180519086012090516118399501611f06565b604051602081830303815290604052805190602001209050919050565b6000611860611872565b82604051602001611839929190611df1565b60005490565b8280546118849061224b565b90600052602060002090601f0160209004810192826118a657600085556118ec565b82601f106118bf57805160ff19168380011785556118ec565b828001600101855582156118ec579182015b828111156118ec5782518255916020019190600101906118d1565b506118f8929150611a24565b5090565b6040518060c001604052806000815260200160608152602001606081526020016060815260200160006001600160a01b03168152602001606081525090565b8280548282559060005260206000209081019282156118ec579160200282015b828111156118ec57825182546001600160a01b0319166001600160a01b0390911617825560209092019160019091019061195b565b6040805160808101825260008082526020820181905260609282018390529181019190915290565b8280548282559060005260206000209081019282156118ec5760005260206000209182015b828111156118ec5782548255916001019190600101906119dd565b604051806060016040528060006001600160a01b03168152602001606081526020016000151581525090565b5b808211156118f85760008155600101611a25565b600067ffffffffffffffff80841115611a5457611a546122b7565b604051601f8501601f19908116603f01168101908282118183101715611a7c57611a7c6122b7565b81604052809350858152868686011115611a9557600080fd5b858560208301376000602087830101525050509392505050565b600082601f830112611abf578081fd5b6117f183833560208501611a39565b600060208284031215611adf578081fd5b81356117f1816122cd565b600080600060608486031215611afe578182fd5b8335611b09816122cd565b92506020840135611b19816122cd565b9150604084013567ffffffffffffffff811115611b34578182fd5b611b4086828701611aaf565b9150509250925092565b60008060408385031215611b5c578182fd5b8235611b67816122cd565b91506020830135611b77816122cd565b809150509250929050565b600080600080600060a08688031215611b99578081fd5b8535611ba4816122cd565b9450602086013567ffffffffffffffff811115611bbf578182fd5b8601601f81018813611bcf578182fd5b611bde88823560208401611a39565b9450506040860135925060608601359150608086013560ff81168114611c02578182fd5b809150509295509295909350565b600080600060608486031215611c24578283fd5b8335611c2f816122cd565b9250602084013567ffffffffffffffff811115611c4a578283fd5b611c5686828701611aaf565b9250506040840135611c67816122cd565b809150509250925092565b60008060408385031215611c84578182fd5b8235611c8f816122cd565b946020939093013593505050565b600080600080600060a08688031215611cb4578081fd5b853567ffffffffffffffff80821115611ccb578283fd5b611cd789838a01611aaf565b96506020880135915080821115611cec578283fd5b611cf889838a01611aaf565b955060408801359150611d0a826122cd565b90935060608701359080821115611d1f578283fd5b611d2b89838a01611aaf565b93506080880135915080821115611d40578283fd5b50611d4d88828901611aaf565b9150509295509295909350565b600060208284031215611d6b578081fd5b5035919050565b60008151808452611d8a81602086016020860161221b565b601f01601f19169290920160200192915050565b60008251611db081846020870161221b565b9190910192915050565b60008351611dcc81846020880161221b565b60609390931b6bffffffffffffffffffffffff19169190920190815260140192915050565b61190160f01b81526002810192909252602282015260420190565b6001600160a01b0391909116815260200190565b6001600160a01b0392831681529116602082015260400190565b6001600160a01b03848116825283166020820152606060408201819052600090611e6690830184611d72565b95945050505050565b6001600160a01b03858116825284166020820152608060408201819052600090611e9b90830185611d72565b9050821515606083015295945050505050565b6020808252825182820181905260009190848201906040850190845b81811015611eef5783516001600160a01b031683529284019291840191600101611eca565b50909695505050505050565b901515815260200190565b93845260208401929092526001600160a01b03166040830152606082015260800190565b93845260ff9290921660208401526040830152606082015260800190565b6000602082526117f16020830184611d72565b6020808252601c908201527f46756e6374696f6e2063616c6c206e6f74207375636365737366756c00000000604082015260600190565b6020808252603d908201527f66756e6374696f6e5369676e61747572652063616e206e6f74206265206f662060408201527f657865637574654d6574615472616e73616374696f6e206d6574686f64000000606082015260800190565b602080825260119082015270496e76616c6964207369676e617475726560781b604082015260600190565b60208082526021908201527f5369676e657220616e64207369676e617475726520646f206e6f74206d6174636040820152600d60fb1b606082015260800190565b60006020825260018060a01b038084511660208401528060208501511660408401525060408301516080606084015261209760a0840182611d72565b90506060840151151560808401528091505092915050565b602080825282516001600160a01b03908116838301528382015160606040850152805160808501819052600093929183019190849060a08701905b8083101561210c578451841682529385019360019290920191908501906120ea565b50604088015115156060880152809550505050505092915050565b60006020825282516020830152602083015160c0604084015261214d60e0840182611d72565b90506040840151601f198085840301606086015261216b8383611d72565b925060608601519150808584030160808601526121888383611d72565b60808701516001600160a01b031660a08781019190915287015186820390920160c087015292509050611e668282611d72565b90815260200190565b600082198211156121d7576121d76122a1565b500190565b6000826121f757634e487b7160e01b81526012600452602481fd5b500490565b6000816000190483118215151615612216576122166122a1565b500290565b60005b8381101561223657818101518382015260200161221e565b83811115612245576000848401525b50505050565b60028104600182168061225f57607f821691505b6020821081141561228057634e487b7160e01b600052602260045260246000fd5b50919050565b600060001982141561229a5761229a6122a1565b5060010190565b634e487b7160e01b600052601160045260246000fd5b634e487b7160e01b600052604160045260246000fd5b6001600160a01b03811681146122e257600080fd5b5056fe4d6574615472616e73616374696f6e2875696e74323536206e6f6e63652c616464726573732066726f6d2c62797465732066756e6374696f6e5369676e617475726529a2646970667358221220f794e107f4821e78fa88ce3a8b72bf074932e0c0bf7f3fe37d788c7492fd5b9a64736f6c63430008010033454950373132446f6d61696e28737472696e67206e616d652c737472696e672076657273696f6e2c6164647265737320766572696679696e67436f6e74726163742c627974657333322073616c7429",
  "immutableReferences": {},
  "source": "// SPDX-License-Identifier: MIT\r\npragma solidity ^0.8.0;\r\npragma experimental ABIEncoderV2;\r\n\r\nimport \"./EIP712MetaTransaction.sol\";\r\n\r\ncontract VidShield is EIP712MetaTransaction(\"VidShield\",\"1\")\r\n{\r\n    struct Video\r\n    {\r\n        uint id;\r\n        string livepeerlink;\r\n        string thumbnail;\r\n        string title;\r\n        address creator;\r\n        string date;\r\n    }\r\n\r\n    struct User\r\n    {\r\n        address viewer;\r\n        address[] allcreatorsubscribed;\r\n        bool block;\r\n    }\r\n    mapping (address=>mapping(address=>string)) public creatorssubscribed;\r\n\r\n    mapping(address=>User) userdata;\r\n\r\n    mapping(uint=>Video) creatorvideos;\r\n    address[] registeredCreatorslist;\r\n    //uint public registeredCreators=0;\r\n    mapping(address=>bool) creatorpresence;\r\n\r\n    mapping(address=>bool) viewerpresence;\r\n    \r\n    struct Request\r\n    {\r\n        address reporter;\r\n        address pirate;\r\n        string movielink;\r\n        bool fulfill;\r\n    }\r\n    uint public requestcounter=0;\r\n    mapping(uint=>Request) public reporterrequests;\r\n    \r\n    event VideoRegistered(uint videoId);\r\n    event creatorRegisteredConfirm(address creator);\r\n    event viewerSubscribedCreator(address viewer,address creator);\r\n    event PirateReported(address pirate);\r\n\r\n    uint public vidcounter=0;\r\n    address payable admin;\r\n    constructor()\r\n    {\r\n        admin = payable(msg.sender);\r\n    }\r\n    function registerVideo(string memory title, string memory livepeerlink,address payable creator,string memory date,string memory thumbnail)public\r\n    {\r\n        require(creatorpresence[creator]==true);\r\n        Video memory vid;\r\n        vidcounter+=1;\r\n        vid.id = vidcounter;\r\n        vid.title = title;\r\n        vid.livepeerlink = livepeerlink;\r\n        vid.thumbnail = thumbnail;\r\n        vid.creator = creator;\r\n        vid.date = date;\r\n        creatorvideos[vid.id] = vid; \r\n        emit VideoRegistered(vid.id);\r\n    }\r\n\r\n    function registerCreator(address payable creator)public\r\n    {\r\n        require(creatorpresence[creator]==false);\r\n        registeredCreatorslist.push(creator);\r\n        creatorpresence[creator] = true;\r\n        emit creatorRegisteredConfirm(creator);\r\n    }\r\n\r\n    function getAllRegisteredCreators() public view returns(address[] memory)\r\n    {\r\n        return registeredCreatorslist;\r\n    }\r\n\r\n    function getCountOfAllRegisteredCreators()public view returns(uint)\r\n    {\r\n        return registeredCreatorslist.length;\r\n    }\r\n\r\n    function checkIfAlreadyCreator(address creator)public view returns(bool)\r\n    {\r\n        return creatorpresence[creator];\r\n    }\r\n\r\n    function checkIfAlreadyViewer(address viewer)public view returns(bool)\r\n    {\r\n        return viewerpresence[viewer];\r\n    }\r\n\r\n    function registerViewer(address payable viewer)public payable\r\n    {\r\n        require(viewerpresence[viewer]==false);\r\n        viewerpresence[viewer] = true;\r\n    }\r\n\r\n    function subscribeCreator(address payable viewer,address payable creator,string memory subscriptionenddate)public payable\r\n    {\r\n        User storage getdata= userdata[viewer];\r\n        address[] storage allcreators = getdata.allcreatorsubscribed;\r\n        allcreators.push(creator);\r\n        User memory user=User(viewer,allcreators,false);\r\n        uint payToAdmin = (msg.value)/5;\r\n        uint payToCreator = (msg.value*4)/5;\r\n        payable(admin).transfer(payToAdmin);\r\n        payable(creator).transfer(payToCreator);\r\n        //user.viewer = viewer;\r\n        //user.allcreatorsubscribed.push(creator);\r\n        //user.creatorssubscribed[creator]=subscriptionenddate;\r\n        creatorssubscribed[viewer][creator]=subscriptionenddate;\r\n        userdata[viewer] = user;\r\n        emit viewerSubscribedCreator(viewer,creator);\r\n    }\r\n\r\n    function getCreatorsforViewer(address viewer)public view returns(address[] memory)\r\n    {\r\n        return userdata[viewer].allcreatorsubscribed;\r\n    }\r\n\r\n    function unsubscribeCreator(address viewer,address creator)public\r\n    {\r\n        User storage user = userdata[viewer];\r\n        creatorssubscribed[viewer][creator] = \"NA\";\r\n        userdata[viewer] = user;\r\n    }\r\n\r\n    function getVideoData(uint id) public view returns(Video memory)\r\n    {\r\n        return creatorvideos[id];\r\n    }\r\n\r\n    function getUserData(address viewer) public view returns(User memory)\r\n    {\r\n        return userdata[viewer];\r\n    }\r\n\r\n    function addReporter(address reporter,string memory movielink,address pirate)public\r\n    {\r\n        //address[] storage array=reporters[id];\r\n        //array.push(reporter);\r\n        //reporters[id]=array;\r\n        Request memory r;\r\n        r.reporter=reporter;\r\n        r.pirate = pirate;\r\n        //r.id=id;\r\n        r.movielink=movielink;\r\n        r.fulfill=false;\r\n        \r\n        requestcounter++;\r\n        reporterrequests[requestcounter]=r;\r\n    }\r\n   \r\n    function cancelRequest(uint requestid)public\r\n    {\r\n        Request memory req=reporterrequests[requestid];\r\n        req.fulfill=true;\r\n        reporterrequests[requestid] = req;\r\n    }\r\n\r\n    function getReporterrequest(uint requestid) public view returns(Request memory)\r\n    {\r\n        return reporterrequests[requestid];\r\n    }\r\n\r\n    function blockUser(address pirate,uint requestid)public payable\r\n    {\r\n        User memory data = userdata[pirate];\r\n        data.block=true;\r\n        userdata[pirate]=data;\r\n        Request memory req=reporterrequests[requestid];\r\n        req.fulfill=true;\r\n        address reporter = req.reporter;\r\n        payable(reporter).transfer(msg.value);\r\n        reporterrequests[requestid] = req;\r\n        emit PirateReported(pirate);\r\n    }\r\n}",
  "sourcePath": "D:\\Ethernals\\VidShield\\contracts\\VidShield.sol",
  "compiler": {
    "name": "solc",
    "version": "0.8.1+commit.df193b15.Emscripten.clang"
  },
  "schemaVersion": "3.4.4",
  "updatedAt": "2022-03-27T08:48:43.812Z",
  "networkType": "ethereum",
  "devdoc": {
    "kind": "dev",
    "methods": {},
    "version": 1
  },
  "userdoc": {
    "kind": "user",
    "methods": {},
    "version": 1
  }
}