{
  "contractName": "VidShield",
  "abi": [
    {
      "inputs": [],
      "stateMutability": "nonpayable",
      "type": "constructor"
    },
    {
      "anonymous": false,
      "inputs": [
        {
          "indexed": false,
          "internalType": "address",
          "name": "userAddress",
          "type": "address"
        },
        {
          "indexed": false,
          "internalType": "address payable",
          "name": "relayerAddress",
          "type": "address"
        },
        {
          "indexed": false,
          "internalType": "bytes",
          "name": "functionSignature",
          "type": "bytes"
        }
      ],
      "name": "MetaTransactionExecuted",
      "type": "event"
    },
    {
      "anonymous": false,
      "inputs": [
        {
          "indexed": false,
          "internalType": "address",
          "name": "pirate",
          "type": "address"
        }
      ],
      "name": "PirateReported",
      "type": "event"
    },
    {
      "anonymous": false,
      "inputs": [
        {
          "indexed": false,
          "internalType": "uint256",
          "name": "videoId",
          "type": "uint256"
        }
      ],
      "name": "VideoRegistered",
      "type": "event"
    },
    {
      "anonymous": false,
      "inputs": [
        {
          "indexed": false,
          "internalType": "address",
          "name": "creator",
          "type": "address"
        }
      ],
      "name": "creatorRegisteredConfirm",
      "type": "event"
    },
    {
      "anonymous": false,
      "inputs": [
        {
          "indexed": false,
          "internalType": "address",
          "name": "viewer",
          "type": "address"
        },
        {
          "indexed": false,
          "internalType": "address",
          "name": "creator",
          "type": "address"
        }
      ],
      "name": "viewerSubscribedCreator",
      "type": "event"
    },
    {
      "inputs": [
        {
          "internalType": "address",
          "name": "",
          "type": "address"
        },
        {
          "internalType": "address",
          "name": "",
          "type": "address"
        }
      ],
      "name": "creatorssubscribed",
      "outputs": [
        {
          "internalType": "string",
          "name": "",
          "type": "string"
        }
      ],
      "stateMutability": "view",
      "type": "function",
      "constant": true
    },
    {
      "inputs": [
        {
          "internalType": "address",
          "name": "userAddress",
          "type": "address"
        },
        {
          "internalType": "bytes",
          "name": "functionSignature",
          "type": "bytes"
        },
        {
          "internalType": "bytes32",
          "name": "sigR",
          "type": "bytes32"
        },
        {
          "internalType": "bytes32",
          "name": "sigS",
          "type": "bytes32"
        },
        {
          "internalType": "uint8",
          "name": "sigV",
          "type": "uint8"
        }
      ],
      "name": "executeMetaTransaction",
      "outputs": [
        {
          "internalType": "bytes",
          "name": "",
          "type": "bytes"
        }
      ],
      "stateMutability": "payable",
      "type": "function",
      "payable": true
    },
    {
      "inputs": [
        {
          "internalType": "address",
          "name": "user",
          "type": "address"
        }
      ],
      "name": "getNonce",
      "outputs": [
        {
          "internalType": "uint256",
          "name": "nonce",
          "type": "uint256"
        }
      ],
      "stateMutability": "view",
      "type": "function",
      "constant": true
    },
    {
      "inputs": [],
      "name": "requestcounter",
      "outputs": [
        {
          "internalType": "uint256",
          "name": "",
          "type": "uint256"
        }
      ],
      "stateMutability": "view",
      "type": "function",
      "constant": true
    },
    {
      "inputs": [],
      "name": "vidcounter",
      "outputs": [
        {
          "internalType": "uint256",
          "name": "",
          "type": "uint256"
        }
      ],
      "stateMutability": "view",
      "type": "function",
      "constant": true
    },
    {
      "inputs": [
        {
          "internalType": "string",
          "name": "title",
          "type": "string"
        },
        {
          "internalType": "string",
          "name": "livepeerlink",
          "type": "string"
        },
        {
          "internalType": "address payable",
          "name": "creator",
          "type": "address"
        },
        {
          "internalType": "string",
          "name": "date",
          "type": "string"
        },
        {
          "internalType": "string",
          "name": "thumbnail",
          "type": "string"
        }
      ],
      "name": "registerVideo",
      "outputs": [],
      "stateMutability": "nonpayable",
      "type": "function"
    },
    {
      "inputs": [
        {
          "internalType": "address payable",
          "name": "creator",
          "type": "address"
        }
      ],
      "name": "registerCreator",
      "outputs": [],
      "stateMutability": "nonpayable",
      "type": "function"
    },
    {
      "inputs": [],
      "name": "getAllRegisteredCreators",
      "outputs": [
        {
          "internalType": "address[]",
          "name": "",
          "type": "address[]"
        }
      ],
      "stateMutability": "view",
      "type": "function",
      "constant": true
    },
    {
      "inputs": [],
      "name": "getCountOfAllRegisteredCreators",
      "outputs": [
        {
          "internalType": "uint256",
          "name": "",
          "type": "uint256"
        }
      ],
      "stateMutability": "view",
      "type": "function",
      "constant": true
    },
    {
      "inputs": [
        {
          "internalType": "address",
          "name": "creator",
          "type": "address"
        }
      ],
      "name": "checkIfAlreadyCreator",
      "outputs": [
        {
          "internalType": "bool",
          "name": "",
          "type": "bool"
        }
      ],
      "stateMutability": "view",
      "type": "function",
      "constant": true
    },
    {
      "inputs": [
        {
          "internalType": "address",
          "name": "viewer",
          "type": "address"
        }
      ],
      "name": "checkIfAlreadyViewer",
      "outputs": [
        {
          "internalType": "bool",
          "name": "",
          "type": "bool"
        }
      ],
      "stateMutability": "view",
      "type": "function",
      "constant": true
    },
    {
      "inputs": [
        {
          "internalType": "address payable",
          "name": "viewer",
          "type": "address"
        }
      ],
      "name": "registerViewer",
      "outputs": [],
      "stateMutability": "payable",
      "type": "function",
      "payable": true
    },
    {
      "inputs": [
        {
          "internalType": "address payable",
          "name": "viewer",
          "type": "address"
        },
        {
          "internalType": "address payable",
          "name": "creator",
          "type": "address"
        },
        {
          "internalType": "string",
          "name": "subscriptionenddate",
          "type": "string"
        }
      ],
      "name": "subscribeCreator",
      "outputs": [],
      "stateMutability": "payable",
      "type": "function",
      "payable": true
    },
    {
      "inputs": [
        {
          "internalType": "address",
          "name": "viewer",
          "type": "address"
        }
      ],
      "name": "getCreatorsforViewer",
      "outputs": [
        {
          "internalType": "address[]",
          "name": "",
          "type": "address[]"
        }
      ],
      "stateMutability": "view",
      "type": "function",
      "constant": true
    },
    {
      "inputs": [
        {
          "internalType": "address",
          "name": "viewer",
          "type": "address"
        },
        {
          "internalType": "address",
          "name": "creator",
          "type": "address"
        }
      ],
      "name": "unsubscribeCreator",
      "outputs": [],
      "stateMutability": "nonpayable",
      "type": "function"
    },
    {
      "inputs": [
        {
          "internalType": "uint256",
          "name": "id",
          "type": "uint256"
        }
      ],
      "name": "getVideoData",
      "outputs": [
        {
          "components": [
            {
              "internalType": "uint256",
              "name": "id",
              "type": "uint256"
            },
            {
              "internalType": "string",
              "name": "livepeerlink",
              "type": "string"
            },
            {
              "internalType": "string",
              "name": "thumbnail",
              "type": "string"
            },
            {
              "internalType": "string",
              "name": "title",
              "type": "string"
            },
            {
              "internalType": "address",
              "name": "creator",
              "type": "address"
            },
            {
              "internalType": "string",
              "name": "date",
              "type": "string"
            }
          ],
          "internalType": "struct VidShield.Video",
          "name": "",
          "type": "tuple"
        }
      ],
      "stateMutability": "view",
      "type": "function",
      "constant": true
    },
    {
      "inputs": [
        {
          "internalType": "address",
          "name": "viewer",
          "type": "address"
        }
      ],
      "name": "getUserData",
      "outputs": [
        {
          "components": [
            {
              "internalType": "address",
              "name": "viewer",
              "type": "address"
            },
            {
              "internalType": "address[]",
              "name": "allcreatorsubscribed",
              "type": "address[]"
            },
            {
              "internalType": "bool",
              "name": "block",
              "type": "bool"
            }
          ],
          "internalType": "struct VidShield.User",
          "name": "",
          "type": "tuple"
        }
      ],
      "stateMutability": "view",
      "type": "function",
      "constant": true
    },
    {
      "inputs": [
        {
          "internalType": "address",
          "name": "reporter",
          "type": "address"
        },
        {
          "internalType": "string",
          "name": "movielink",
          "type": "string"
        },
        {
          "internalType": "address",
          "name": "pirate",
          "type": "address"
        }
      ],
      "name": "addReporter",
      "outputs": [],
      "stateMutability": "nonpayable",
      "type": "function"
    },
    {
      "inputs": [
        {
          "internalType": "uint256",
          "name": "requestid",
          "type": "uint256"
        }
      ],
      "name": "cancelRequest",
      "outputs": [],
      "stateMutability": "nonpayable",
      "type": "function"
    },
    {
      "inputs": [
        {
          "internalType": "address",
          "name": "pirate",
          "type": "address"
        },
        {
          "internalType": "uint256",
          "name": "requestid",
          "type": "uint256"
        }
      ],
      "name": "blockUser",
      "outputs": [],
      "stateMutability": "payable",
      "type": "function",
      "payable": true
    }
  ],
  "bytecode": "0x608060405260006008556000600a553480156200001b57600080fd5b5060405180604001604052806009815260200168159a5914da1a595b1960ba1b815250604051806040016040528060018152602001603160f81b81525081816040518060800160405280604f8152602001620021d3604f91398051906020012082805190602001208280519060200120306200009c620000ea60201b60201c565b604051620000b2959493929190602001620000ee565b60408051601f1981840301815291905280516020909101206000555050600b80546001600160a01b03191633179055506200011a9050565b4690565b948552602085019390935260408401919091526001600160a01b03166060830152608082015260a00190565b6120a9806200012a6000396000f3fe60806040526004361061011f5760003560e01c806392e23179116100a0578063cd64c4a811610064578063cd64c4a8146102fb578063f249e3cc1461031b578063f2e8b67d14610348578063fe5483c41461035b578063ffc9896b146103705761011f565b806392e2317914610266578063940e1d2c146102865780639a8b5513146102a6578063c24453f2146102c6578063cb484b69146102db5761011f565b8063352607c1116100e7578063352607c1146101d15780634f5b0a30146101fe578063581652d1146102115780636919e53a146102245780639222a810146102515761011f565b8063034b512b146101245780630c53c51c1461014f5780632d0335ab1461016f5780633015394c1461018f57806331702580146101b1575b600080fd5b34801561013057600080fd5b5061013961039d565b6040516101469190611f06565b60405180910390f35b61016261015d366004611960565b6103a3565b6040516101469190611ce7565b34801561017b57600080fd5b5061013961018a3660046118ac565b610564565b34801561019b57600080fd5b506101af6101aa366004611b38565b61057f565b005b3480156101bd57600080fd5b506101af6101cc366004611a7b565b6106e5565b3480156101dd57600080fd5b506101f16101ec3660046118ac565b610848565b6040516101469190611c4d565b6101af61020c3660046118c8565b6108c2565b6101af61021f3660046118ac565b610af7565b34801561023057600080fd5b5061024461023f3660046118ac565b610b41565b6040516101469190611c9a565b34801561025d57600080fd5b50610139610b5f565b34801561027257600080fd5b506102446102813660046118ac565b610b65565b34801561029257600080fd5b506101af6102a13660046119ee565b610b83565b3480156102b257600080fd5b506101626102c1366004611928565b610c44565b3480156102d257600080fd5b50610139610ce9565b3480156102e757600080fd5b506101af6102f6366004611928565b610cef565b34801561030757600080fd5b506101af6103163660046118ac565b610dae565b34801561032757600080fd5b5061033b610336366004611b38565b610e73565b6040516101469190611e72565b6101af610356366004611a50565b611109565b34801561036757600080fd5b506101f16113ee565b34801561037c57600080fd5b5061039061038b3660046118ac565b611450565b6040516101469190611dfa565b60085481565b606060006103b0866114fb565b90506000356001600160e01b031990811690821614156103eb5760405162461bcd60e51b81526004016103e290611d31565b60405180910390fd5b604080516060810182526001600160a01b038916600081815260016020908152908490205483528201529081018790526104288882888888611517565b6104445760405162461bcd60e51b81526004016103e290611db9565b6001600160a01b038816600090815260016020819052604090912054610469916115c3565b6001600160a01b038916600090815260016020908152604080832093909355915190918291309161049e918c918e9101611b98565b60408051601f19818403018152908290526104b891611b7c565b6000604051808303816000865af19150503d80600081146104f5576040519150601f19603f3d011682016040523d82523d6000602084013e6104fa565b606091505b50915091508161051c5760405162461bcd60e51b81526004016103e290611cfa565b7f5845892132946850460bff5a0083f71031bc5bf9aadcd40f1de79423eac9b10b8a338b60405161054f93929190611c18565b60405180910390a19998505050505050505050565b6001600160a01b031660009081526001602052604090205490565b6000818152600960209081526040808320815160808101835281546001600160a01b0390811682526001830154169381019390935260028101805491928401916105c890611f96565b80601f01602080910402602001604051908101604052809291908181526020018280546105f490611f96565b80156106415780601f1061061657610100808354040283529160200191610641565b820191906000526020600020905b81548152906001019060200180831161062457829003601f168201915b50505091835250506003919091015460ff161515602091820152600160608301819052600085815260098352604090819020845181546001600160a01b039182166001600160a01b0319918216178355868601519483018054959092169416939093179092558301518051939450849391926106c592600285019290910190611656565b50606091909101516003909101805460ff19169115159190911790555050565b6001600160a01b03831660009081526006602052604090205460ff16151560011461070f57600080fd5b6107176116da565b6001600a600082825461072a9190611f0f565b9091555050600a5480825260608201879052602080830187815260408085018690526001600160a01b038816608086015260a08501879052600093845260048352909220835181559151805184939261078a926001850192910190611656565b50604082015180516107a6916002840191602090910190611656565b50606082015180516107c2916003840191602090910190611656565b5060808201516004820180546001600160a01b0319166001600160a01b0390921691909117905560a08201518051610804916005840191602090910190611656565b505081516040517f67fbc59441699d813d53c64203e5bec4c44ade430c0f30a41089feaa5761936292506108389190611f06565b60405180910390a1505050505050565b6001600160a01b0381166000908152600360209081526040918290206001018054835181840281018401909452808452606093928301828280156108b557602002820191906000526020600020905b81546001600160a01b03168152600190910190602001808311610897575b505050505090505b919050565b6001600160a01b03838116600081815260036020908152604080832060018082018054918201815580865284862090910180546001600160a01b031916978a169790971790965581516060810183529485528554825181850281018501909352808352909594928381019291869183018282801561096957602002820191906000526020600020905b81546001600160a01b0316815260019091019060200180831161094b575b505050918352505060006020909101819052909150610989600534611f27565b90506000600561099a346004611f47565b6109a49190611f27565b600b546040519192506001600160a01b03169083156108fc029084906000818181858888f193505050501580156109df573d6000803e3d6000fd5b506040516001600160a01b0388169082156108fc029083906000818181858888f19350505050158015610a16573d6000803e3d6000fd5b506001600160a01b038089166000908152600260209081526040808320938b1683529281529190208751610a4c92890190611656565b506001600160a01b038881166000908152600360209081526040909120855181546001600160a01b0319169316929092178255848101518051869392610a99926001850192910190611719565b50604091820151600291909101805460ff1916911515919091179055517f37927fbcafc58533286cad12a4edbc7cd66341c33733d1dbb9ae45fa3523c5a290610ae5908a908a90611bfe565b60405180910390a15050505050505050565b6001600160a01b03811660009081526007602052604090205460ff1615610b1d57600080fd5b6001600160a01b03166000908152600760205260409020805460ff19166001179055565b6001600160a01b031660009081526006602052604090205460ff1690565b60055490565b6001600160a01b031660009081526007602052604090205460ff1690565b610b8b61176e565b6001600160a01b03808516825282166020820152604081018390526000606082018190526008805491610bbd83611fd1565b9091555050600854600090815260096020908152604091829020835181546001600160a01b039182166001600160a01b031991821617835583860151600184018054919093169116179055918301518051849392610c22926002850192910190611656565b50606091909101516003909101805460ff191691151591909117905550505050565b600260209081526000928352604080842090915290825290208054610c6890611f96565b80601f0160208091040260200160405190810160405280929190818152602001828054610c9490611f96565b8015610ce15780601f10610cb657610100808354040283529160200191610ce1565b820191906000526020600020905b815481529060010190602001808311610cc457829003601f168201915b505050505081565b600a5481565b6001600160a01b038083166000818152600360209081526040808320815180830183526002808252614e4160f01b828601908152968652845282852096881685529590925290912092519092610d46929091611656565b506001600160a01b038084166000908152600360205260409020825481546001600160a01b031916921691909117815560018083018054849392610d8d9290840191611796565b506002918201549101805460ff191660ff9092161515919091179055505050565b6001600160a01b03811660009081526006602052604090205460ff1615610dd457600080fd5b6005805460018082019092557f036b6384b5eca791c62761152d0c79bb0604c104a5fb6f4eb0703f3154bb3db00180546001600160a01b0319166001600160a01b03841690811790915560009081526006602052604090819020805460ff1916909217909155517f1f1be2ab28ed85ac7f08419858df854a963d31331ea13df98f1ba5c84252531690610e68908390611bea565b60405180910390a150565b610e7b6116da565b600460008381526020019081526020016000206040518060c001604052908160008201548152602001600182018054610eb390611f96565b80601f0160208091040260200160405190810160405280929190818152602001828054610edf90611f96565b8015610f2c5780601f10610f0157610100808354040283529160200191610f2c565b820191906000526020600020905b815481529060010190602001808311610f0f57829003601f168201915b50505050508152602001600282018054610f4590611f96565b80601f0160208091040260200160405190810160405280929190818152602001828054610f7190611f96565b8015610fbe5780601f10610f9357610100808354040283529160200191610fbe565b820191906000526020600020905b815481529060010190602001808311610fa157829003601f168201915b50505050508152602001600382018054610fd790611f96565b80601f016020809104026020016040519081016040528092919081815260200182805461100390611f96565b80156110505780601f1061102557610100808354040283529160200191611050565b820191906000526020600020905b81548152906001019060200180831161103357829003601f168201915b505050918352505060048201546001600160a01b0316602082015260058201805460409092019161108090611f96565b80601f01602080910402602001604051908101604052809291908181526020018280546110ac90611f96565b80156110f95780601f106110ce576101008083540402835291602001916110f9565b820191906000526020600020905b8154815290600101906020018083116110dc57829003601f168201915b5050505050815250509050919050565b6001600160a01b038083166000908152600360209081526040808320815160608101835281549095168552600181018054835181860281018601909452808452949594919385810193929083018282801561118d57602002820191906000526020600020905b81546001600160a01b0316815260019091019060200180831161116f575b50505091835250506002919091015460ff161515602091820152600160408381018290526001600160a01b0387811660009081526003855291909120845181546001600160a01b0319169216919091178155838301518051949550859491936111fb93850192910190611719565b506040918201516002918201805460ff1916911515919091179055600084815260096020908152838220845160808101865281546001600160a01b03908116825260018301541692810192909252928301805492949193929184019161126090611f96565b80601f016020809104026020016040519081016040528092919081815260200182805461128c90611f96565b80156112d95780601f106112ae576101008083540402835291602001916112d9565b820191906000526020600020905b8154815290600101906020018083116112bc57829003601f168201915b50505091835250506003919091015460ff161515602090910152600160608201528051604051919250906001600160a01b038216903480156108fc02916000818181858888f19350505050158015611335573d6000803e3d6000fd5b50600084815260096020908152604091829020845181546001600160a01b039182166001600160a01b031991821617835583870151600184018054919093169116179055918401518051859392611393926002850192910190611656565b50606091909101516003909101805460ff19169115159190911790556040517f898e03c08749f8a493582fc0a6648a56bd8a498f9c1fed77bf87da7facb1d758906113df908790611bea565b60405180910390a15050505050565b6060600580548060200260200160405190810160405280929190818152602001828054801561144657602002820191906000526020600020905b81546001600160a01b03168152600190910190602001808311611428575b5050505050905090565b6114586117d6565b6001600160a01b038083166000908152600360209081526040918290208251606081018452815490941684526001810180548451818502810185019095528085529193858401939092908301828280156114db57602002820191906000526020600020905b81546001600160a01b031681526001909101906020018083116114bd575b50505091835250506002919091015460ff16151560209091015292915050565b600081516000141561150f575060006108bd565b506020015190565b600080600161152d611528886115d6565b611634565b8487876040516000815260200160405260405161154d9493929190611cc9565b6020604051602081039080840390855afa15801561156f573d6000803e3d6000fd5b5050604051601f1901519150506001600160a01b0381166115a25760405162461bcd60e51b81526004016103e290611d8e565b866001600160a01b0316816001600160a01b03161491505095945050505050565b60006115cf8284611f0f565b9392505050565b600060405180608001604052806043815260200161203160439139805160209182012083518483015160408087015180519086012090516116179501611ca5565b604051602081830303815290604052805190602001209050919050565b600061163e611650565b82604051602001611617929190611bcf565b60005490565b82805461166290611f96565b90600052602060002090601f01602090048101928261168457600085556116ca565b82601f1061169d57805160ff19168380011785556116ca565b828001600101855582156116ca579182015b828111156116ca5782518255916020019190600101906116af565b506116d6929150611802565b5090565b6040518060c001604052806000815260200160608152602001606081526020016060815260200160006001600160a01b03168152602001606081525090565b8280548282559060005260206000209081019282156116ca579160200282015b828111156116ca57825182546001600160a01b0319166001600160a01b03909116178255602090920191600190910190611739565b6040805160808101825260008082526020820181905260609282018390529181019190915290565b8280548282559060005260206000209081019282156116ca5760005260206000209182015b828111156116ca5782548255916001019190600101906117bb565b604051806060016040528060006001600160a01b03168152602001606081526020016000151581525090565b5b808211156116d65760008155600101611803565b600067ffffffffffffffff8084111561183257611832612002565b604051601f8501601f19908116603f0116810190828211818310171561185a5761185a612002565b8160405280935085815286868601111561187357600080fd5b858560208301376000602087830101525050509392505050565b600082601f83011261189d578081fd5b6115cf83833560208501611817565b6000602082840312156118bd578081fd5b81356115cf81612018565b6000806000606084860312156118dc578182fd5b83356118e781612018565b925060208401356118f781612018565b9150604084013567ffffffffffffffff811115611912578182fd5b61191e8682870161188d565b9150509250925092565b6000806040838503121561193a578182fd5b823561194581612018565b9150602083013561195581612018565b809150509250929050565b600080600080600060a08688031215611977578081fd5b853561198281612018565b9450602086013567ffffffffffffffff81111561199d578182fd5b8601601f810188136119ad578182fd5b6119bc88823560208401611817565b9450506040860135925060608601359150608086013560ff811681146119e0578182fd5b809150509295509295909350565b600080600060608486031215611a02578283fd5b8335611a0d81612018565b9250602084013567ffffffffffffffff811115611a28578283fd5b611a348682870161188d565b9250506040840135611a4581612018565b809150509250925092565b60008060408385031215611a62578182fd5b8235611a6d81612018565b946020939093013593505050565b600080600080600060a08688031215611a92578081fd5b853567ffffffffffffffff80821115611aa9578283fd5b611ab589838a0161188d565b96506020880135915080821115611aca578283fd5b611ad689838a0161188d565b955060408801359150611ae882612018565b90935060608701359080821115611afd578283fd5b611b0989838a0161188d565b93506080880135915080821115611b1e578283fd5b50611b2b8882890161188d565b9150509295509295909350565b600060208284031215611b49578081fd5b5035919050565b60008151808452611b68816020860160208601611f66565b601f01601f19169290920160200192915050565b60008251611b8e818460208701611f66565b9190910192915050565b60008351611baa818460208801611f66565b60609390931b6bffffffffffffffffffffffff19169190920190815260140192915050565b61190160f01b81526002810192909252602282015260420190565b6001600160a01b0391909116815260200190565b6001600160a01b0392831681529116602082015260400190565b6001600160a01b03848116825283166020820152606060408201819052600090611c4490830184611b50565b95945050505050565b6020808252825182820181905260009190848201906040850190845b81811015611c8e5783516001600160a01b031683529284019291840191600101611c69565b50909695505050505050565b901515815260200190565b93845260208401929092526001600160a01b03166040830152606082015260800190565b93845260ff9290921660208401526040830152606082015260800190565b6000602082526115cf6020830184611b50565b6020808252601c908201527f46756e6374696f6e2063616c6c206e6f74207375636365737366756c00000000604082015260600190565b6020808252603d908201527f66756e6374696f6e5369676e61747572652063616e206e6f74206265206f662060408201527f657865637574654d6574615472616e73616374696f6e206d6574686f64000000606082015260800190565b602080825260119082015270496e76616c6964207369676e617475726560781b604082015260600190565b60208082526021908201527f5369676e657220616e64207369676e617475726520646f206e6f74206d6174636040820152600d60fb1b606082015260800190565b602080825282516001600160a01b03908116838301528382015160606040850152805160808501819052600093929183019190849060a08701905b80831015611e5757845184168252938501936001929092019190850190611e35565b50604088015115156060880152809550505050505092915050565b60006020825282516020830152602083015160c06040840152611e9860e0840182611b50565b90506040840151601f1980858403016060860152611eb68383611b50565b92506060860151915080858403016080860152611ed38383611b50565b60808701516001600160a01b031660a08781019190915287015186820390920160c087015292509050611c448282611b50565b90815260200190565b60008219821115611f2257611f22611fec565b500190565b600082611f4257634e487b7160e01b81526012600452602481fd5b500490565b6000816000190483118215151615611f6157611f61611fec565b500290565b60005b83811015611f81578181015183820152602001611f69565b83811115611f90576000848401525b50505050565b600281046001821680611faa57607f821691505b60208210811415611fcb57634e487b7160e01b600052602260045260246000fd5b50919050565b6000600019821415611fe557611fe5611fec565b5060010190565b634e487b7160e01b600052601160045260246000fd5b634e487b7160e01b600052604160045260246000fd5b6001600160a01b038116811461202d57600080fd5b5056fe4d6574615472616e73616374696f6e2875696e74323536206e6f6e63652c616464726573732066726f6d2c62797465732066756e6374696f6e5369676e617475726529a26469706673582212205ab76738d52474c596582ea77542a2410a4d1be98e1aa0fa544c3a45226d0bec64736f6c63430008010033454950373132446f6d61696e28737472696e67206e616d652c737472696e672076657273696f6e2c6164647265737320766572696679696e67436f6e74726163742c627974657333322073616c7429",
  "immutableReferences": {},
  "source": "// SPDX-License-Identifier: MIT\r\npragma solidity ^0.8.0;\r\npragma experimental ABIEncoderV2;\r\n\r\nimport \"./EIP712MetaTransaction.sol\";\r\n\r\ncontract VidShield is EIP712MetaTransaction(\"VidShield\",\"1\")\r\n{\r\n    struct Video\r\n    {\r\n        uint id;\r\n        string livepeerlink;\r\n        string thumbnail;\r\n        string title;\r\n        address creator;\r\n        string date;\r\n    }\r\n\r\n    struct User\r\n    {\r\n        address viewer;\r\n        address[] allcreatorsubscribed;\r\n        bool block;\r\n    }\r\n    mapping (address=>mapping(address=>string)) public creatorssubscribed;\r\n\r\n    mapping(address=>User) userdata;\r\n\r\n    mapping(uint=>Video) creatorvideos;\r\n    address[] registeredCreatorslist;\r\n    //uint public registeredCreators=0;\r\n    mapping(address=>bool) creatorpresence;\r\n\r\n    mapping(address=>bool) viewerpresence;\r\n    \r\n    struct Request\r\n    {\r\n        address reporter;\r\n        address pirate;\r\n        string movielink;\r\n        bool fulfill;\r\n    }\r\n    uint public requestcounter=0;\r\n    mapping(uint=>Request) reporterrequests;\r\n    \r\n    event VideoRegistered(uint videoId);\r\n    event creatorRegisteredConfirm(address creator);\r\n    event viewerSubscribedCreator(address viewer,address creator);\r\n    event PirateReported(address pirate);\r\n\r\n    uint public vidcounter=0;\r\n    address payable admin;\r\n    constructor()\r\n    {\r\n        admin = payable(msg.sender);\r\n    }\r\n    function registerVideo(string memory title, string memory livepeerlink,address payable creator,string memory date,string memory thumbnail)public\r\n    {\r\n        require(creatorpresence[creator]==true);\r\n        Video memory vid;\r\n        vidcounter+=1;\r\n        vid.id = vidcounter;\r\n        vid.title = title;\r\n        vid.livepeerlink = livepeerlink;\r\n        vid.thumbnail = thumbnail;\r\n        vid.creator = creator;\r\n        vid.date = date;\r\n        creatorvideos[vid.id] = vid; \r\n        emit VideoRegistered(vid.id);\r\n    }\r\n\r\n    function registerCreator(address payable creator)public\r\n    {\r\n        require(creatorpresence[creator]==false);\r\n        registeredCreatorslist.push(creator);\r\n        creatorpresence[creator] = true;\r\n        emit creatorRegisteredConfirm(creator);\r\n    }\r\n\r\n    function getAllRegisteredCreators() public view returns(address[] memory)\r\n    {\r\n        return registeredCreatorslist;\r\n    }\r\n\r\n    function getCountOfAllRegisteredCreators()public view returns(uint)\r\n    {\r\n        return registeredCreatorslist.length;\r\n    }\r\n\r\n    function checkIfAlreadyCreator(address creator)public view returns(bool)\r\n    {\r\n        return creatorpresence[creator];\r\n    }\r\n\r\n    function checkIfAlreadyViewer(address viewer)public view returns(bool)\r\n    {\r\n        return viewerpresence[viewer];\r\n    }\r\n\r\n    function registerViewer(address payable viewer)public payable\r\n    {\r\n        require(viewerpresence[viewer]==false);\r\n        viewerpresence[viewer] = true;\r\n    }\r\n\r\n    function subscribeCreator(address payable viewer,address payable creator,string memory subscriptionenddate)public payable\r\n    {\r\n        User storage getdata= userdata[viewer];\r\n        address[] storage allcreators = getdata.allcreatorsubscribed;\r\n        allcreators.push(creator);\r\n        User memory user=User(viewer,allcreators,false);\r\n        uint payToAdmin = (msg.value)/5;\r\n        uint payToCreator = (msg.value*4)/5;\r\n        payable(admin).transfer(payToAdmin);\r\n        payable(creator).transfer(payToCreator);\r\n        //user.viewer = viewer;\r\n        //user.allcreatorsubscribed.push(creator);\r\n        //user.creatorssubscribed[creator]=subscriptionenddate;\r\n        creatorssubscribed[viewer][creator]=subscriptionenddate;\r\n        userdata[viewer] = user;\r\n        emit viewerSubscribedCreator(viewer,creator);\r\n    }\r\n\r\n    function getCreatorsforViewer(address viewer)public view returns(address[] memory)\r\n    {\r\n        return userdata[viewer].allcreatorsubscribed;\r\n    }\r\n\r\n    function unsubscribeCreator(address viewer,address creator)public\r\n    {\r\n        User storage user = userdata[viewer];\r\n        creatorssubscribed[viewer][creator] = \"NA\";\r\n        userdata[viewer] = user;\r\n    }\r\n\r\n    function getVideoData(uint id) public view returns(Video memory)\r\n    {\r\n        return creatorvideos[id];\r\n    }\r\n\r\n    function getUserData(address viewer) public view returns(User memory)\r\n    {\r\n        return userdata[viewer];\r\n    }\r\n\r\n    function addReporter(address reporter,string memory movielink,address pirate)public\r\n    {\r\n        //address[] storage array=reporters[id];\r\n        //array.push(reporter);\r\n        //reporters[id]=array;\r\n        Request memory r;\r\n        r.reporter=reporter;\r\n        r.pirate = pirate;\r\n        //r.id=id;\r\n        r.movielink=movielink;\r\n        r.fulfill=false;\r\n        \r\n        requestcounter++;\r\n        reporterrequests[requestcounter]=r;\r\n    }\r\n   \r\n    function cancelRequest(uint requestid)public\r\n    {\r\n        Request memory req=reporterrequests[requestid];\r\n        req.fulfill=true;\r\n        reporterrequests[requestid] = req;\r\n    }\r\n\r\n    function blockUser(address pirate,uint requestid)public payable\r\n    {\r\n        User memory data = userdata[pirate];\r\n        data.block=true;\r\n        userdata[pirate]=data;\r\n        Request memory req=reporterrequests[requestid];\r\n        req.fulfill=true;\r\n        address reporter = req.reporter;\r\n        payable(reporter).transfer(msg.value);\r\n        reporterrequests[requestid] = req;\r\n        emit PirateReported(pirate);\r\n    }\r\n}",
  "sourcePath": "D:\\Ethernals\\VidShield\\contracts\\VidShield.sol",
  "compiler": {
    "name": "solc",
    "version": "0.8.1+commit.df193b15.Emscripten.clang"
  },
  "schemaVersion": "3.4.4",
  "updatedAt": "2022-03-26T14:27:08.854Z",
  "networkType": "ethereum",
  "devdoc": {
    "kind": "dev",
    "methods": {},
    "version": 1
  },
  "userdoc": {
    "kind": "user",
    "methods": {},
    "version": 1
  }
}